:100000006BC000000C94C5150C94EC150C944111B8
:100010000C9441110C94411186C0000084C0000072
:1000200082C0000080C000007EC000007CC00000D4
:100030007AC0000078C0000076C0000074C00000E4
:100040000C94151670C000000C947D130C94AF1323
:100050006AC0000068C0000066C0000064C0000004
:100060000C94861860C00000CE05D505D705D905CB
:10007000E005E905EF0500000008000201000003AB
:100080000407000000000000000001020408102026
:10009000408001020408102001020408102004041A
:1000A0000404040404040202020202020303030320
:1000B00003030000000023002600290000000000C8
:1000C000250028002B0000000000240027002A0043
:1000D000D5028510DD133F0311241FBECFEFD8E0FA
:1000E000DEBFCDBF14E0A0E0B1E0ECE6F8E302C073
:1000F00005900D92AA34B107D9F727E0AAE4B4E03D
:1001000001C01D92AE30B207E1F710E0C6EDD0E0BD
:1001100004C02297FE010E94FC19C03DD107C9F717
:1001200039D20C942A1C6CCFFC01718360835383F9
:1001300042831482158216821782108611860895D2
:10014000CF93DF93EC01AA81BB81ED91FC911197D4
:100150003A97808191818A0F9B1FDC01ED91FC9180
:100160000480F581E02D0995AA81BB81ED91FC9178
:1001700011973897808191818A0F9B1FDC01ED9147
:10018000FC910190F081E02D68E070E00995AA8172
:10019000BB81ED91FC9111973A97808191818A0FF3
:1001A0009B1FDC01ED91FC910084F185E02D099508
:1001B0008C83AA81BB81ED91FC9111973A97808144
:1001C00091818A0F9B1FDC01ED91FC910084F185E8
:1001D000E02D09958D83AA81BB81ED91FC9111974A
:1001E0003A97808191818A0F9B1FDC01ED91FC91F0
:1001F0000084F185E02D09958E83AA81BB81ED9164
:10020000FC9111973A97808191818A0F9B1FDC01A5
:10021000ED91FC910084F185E02D09958F83AA81F1
:10022000BB81ED91FC9111973A97808191818A0F62
:100230009B1FDC01ED91FC910084F185E02D099577
:100240008887AA81BB81ED91FC9111973A978081B3
:1002500091818A0F9B1FDC01ED91FC910084F18557
:10026000E02D09958987AA81BB81ED91FC911197B9
:100270003A97808191818A0F9B1FDC01ED91FC915F
:100280000684F785E02DDF91CF910994CF93DF931A
:10029000EC01A881B981ED91FC9111973A97808189
:1002A00091818A0F9B1FDC01ED91FC910284F38503
:1002B000E02D0995A881B981ED91FC9111973897AE
:1002C000808191818A0F9B1FDC01ED91FC9101904F
:1002D000F081E02D68E070E00995A881B981ED9189
:1002E000FC9111973A97808191818A0F9B1FDC01C5
:1002F000ED91FC910480F581E02D6C810995A88138
:10030000B981ED91FC9111973A97808191818A0F83
:100310009B1FDC01ED91FC910480F581E02D6D8146
:100320000995A881B981ED91FC9111973A97808147
:1003300091818A0F9B1FDC01ED91FC910480F58176
:10034000E02D6E810995A881B981ED91FC911197FD
:100350003A97808191818A0F9B1FDC01ED91FC917E
:100360000480F581E02D6F810995A881B981ED9117
:10037000FC9111973A97808191818A0F9B1FDC0134
:10038000ED91FC910480F581E02D68850995A881A7
:10039000B981ED91FC9111973A97808191818A0FF3
:1003A0009B1FDC01ED91FC910480F581E02D6985B6
:1003B0000995A881B981ED91FC9111973A978081B7
:1003C00091818A0F9B1FDC01ED91FC910684F785DA
:1003D000E02DDF91CF910994FC0162FF02C04483BC
:1003E00012C064FF02C045830EC060FF02C0468396
:1003F0000AC061FF02C0478306C063FF02C0408796
:1004000002C065FD4187CF0141CF81E080935E0549
:10041000089521E034E0FC0131832083089521E038
:1004200034E0FC01318320830C94141660E08DEDE0
:1004300094E059D161E08DED94E05BD163E08DED06
:1004400094E06BD140E061E08DED94E06FD144E049
:1004500061E08DED94E079D144E060E18DED94E0D0
:100460007FD165E08DED94E06BD160E18DED94E09E
:1004700081D160E18DED94E083D161E08DED94E078
:1004800032C126E040E855E260E070E086EF95E09A
:100490000E941D1361E08DE00E9434178AE494E00D
:1004A0004FDE40E050E0BA0184E594E01BD3BEDFAC
:1004B00042E050E065E072E080E00E94931562E265
:1004C00071E086EF95E00C946914462F682F8AE45A
:1004D00094E082DFABCFCF93DF9380E00E94B3152F
:1004E00086E694E0D6D3853059F560E070E08BE77E
:1004F00094E00E948D0B8BE694E08FD7C82F8BE69B
:1005000094E08BD7D82F682F8C2FDFDF6EE271E05D
:1005100086EF95E00E945E1440E150E06C2F86EF7C
:1005200095E00E942F1565E371E086EF95E00E944B
:100530005E1440E150E06D2F86EF95E00E942F158C
:1005400042E050E065E072E080E0DF91CF910C94F2
:10055000931566E674E084E594E031D28111BBDF47
:1005600080915E058823A9F010925E056CE08FED06
:1005700094E00E940B0E84FF0CC060E18FED94E0CC
:100580000E940B0E40E150E0682F86EF95E00C943E
:100590002F1508950E94D01674DFCAE6D2E1D9DF84
:1005A0002097E9F30E946A12FACF0F931F9360E03D
:1005B0008DED94E07ED060EA84ED94E00E94680DB9
:1005C00020E045E064E085EB94E00E940F1265EBCB
:1005D00074E081EB94E0B0D365EB74E08DEA94E0D5
:1005E00083D364ED74E081EA94E0DBD464ED74E0DD
:1005F00083E994E0A1D54BE350E063E275E087E83E
:1006000094E00E940B0B4BE350E063E275E08BE754
:1006100094E00E94960B6BEA74E087E794E0C9D6F9
:100620006FE974E083E794E0B4D761E974E08FE6A2
:1006300094E0BFD665E874E08BE694E0AAD763E265
:1006400075E086E694E00BD340E450E063EE74E09E
:100650008EE594E083D201EB14E02DEA34E046E627
:1006600054E06EE574E084E594E030D143E954E071
:1006700061EA74E08AE494E01F910F9155CD84E51E
:1006800094E017D183E393E09093880480938704E8
:1006900085E593E0909392048093910485EB94E038
:1006A0000E94BB1181E094E09093D5048093D40420
:1006B0000895CF93DF93EC0129E531E0FC0121930C
:1006C0003193CF016C610E94790D83E691E09983AB
:1006D00088831B828C818C7F8C838D818D7F8D8321
:1006E000DF91CF910895262F41E06AE202960C94A3
:1006F0001D0E1F93CF93DF93EC01162F262F43E09F
:100700006EE002960E941D0E13708C818C7F812BEF
:100710008C83DF91CF911F910895262F220F220FF6
:10072000220F48E36AE202960C941D0E20E060FB63
:1007300026F940FB27F9422F61E102960C949E0DA9
:10074000462F62E102960C949E0D47706295660FEB
:10075000660F607C642B462F63E102960C949E0D1D
:100760004770660F660F660F642B462F64E1029692
:100770000C949E0D462F262F6DE202960C941D0EB2
:10078000462F262F6EE202960C941D0E0F931F9398
:10079000CF93DF93CDB7DEB72C970FB6F894DEBFBB
:1007A0000FBECDBF8C012CE0442371F0EAE0F1E0F4
:1007B000DE01119601900D922A95E1F7FB0160810F
:1007C00070E080E090E013C0E6E1F1E0DE01119618
:1007D00001900D922A95E1F7FB01608170E0762F80
:1007E00066278181682B882777FD8095982F0E9446
:1007F0006A1AF80124812370E1E0F0E0EC0FFD1F9C
:1008000034E0239FE00DF11D1124208131814281CC
:1008100053810E94001A2C960FB6F894DEBF0FBECB
:10082000CDBFDF91CF911F910F910895BF92CF92CD
:10083000DF92EF92FF920F931F93CF93DF93CDB789
:10084000DEB78C01CDB6DEB6FC01858181FBBB2411
:10085000B0F881FF02C021E001C022E08DB79EB751
:10086000821B91090FB6F8949EBF0FBE8DBFEDB7E6
:10087000FEB731967F01AF01C80102960E94AD0D0F
:100880004B2DB701C80182DF0FB6F894DEBE0FBE54
:10089000CDBEDF91CF911F910F91FF90EF90DF9030
:1008A000CF90BF90089561E0C1CF63E0BFCF65E016
:1008B000BDCF2DE631E0FC013183208308952DE684
:1008C00031E0FC01318320830C9414160F931F93A5
:1008D000FC018DE691E0918380837383628355836D
:1008E000448337832683118700871F910F910895D2
:1008F000DF92EF92FF920F931F93CF93DF93EC0160
:100900008B011CD1C801BDD18E819F81DC01ED918D
:10091000FC910480F581E02D6AEA0995EE81FF8162
:100920000190F081E02DE480F580C801A4D1682F0A
:100930008E819F81F7010995EE81FF810190F08101
:10094000E02DE480F580C801A4D1682F8E819F81BD
:10095000F7010995EE81FF810190F081E02DE4809F
:10096000F580C8019CD1682F8E819F81F701099580
:10097000EE81FF810190F081E02DE680F780C801D3
:100980008ED1D82EC80191D1BC014D2D50E08E8161
:100990009F81F70109958E819F81DC01ED91FC918A
:1009A0000480F581E02D6BEB0995CCD081E0DF91DF
:1009B000CF911F910F91FF90EF90DF900895FF92DC
:1009C0000F931F93CF93DF93EC018B01888599855B
:1009D000DC01ED91FC910280F381E02D0995181660
:1009E000190684F488859985DC01ED91FC910084D9
:1009F000F185E02D0995682F8A819B81B8D0F82E6A
:100A0000811102C0F12C06C0B8018A819B81FBD004
:100A10008823E1F28F2DDF91CF911F910F91FF90ED
:100A20000895AF92BF92CF92DF92EF92FF921F9301
:100A3000CF93DF9300D000D0CDB7DEB75C01162F87
:100A400029833A834B835C8381D00E945F166B01BC
:100A50007C0129813A814B815C81C20ED31EE41E48
:100A6000F51EF50164817581C50129833A834B83A5
:100A70005C83A5DF29813A814B815C81882351F019
:100A8000F5018481958105D129813A814B815C8171
:100A90008117B1F0211531054105510511F3298365
:100AA0003A834B835C830E945F1629813A814B8194
:100AB0005C816C157D058E059F0598F280E001C074
:100AC00081E0898347D089810F900F900F900F901C
:100AD000DF91CF911F91FF90EF90DF90CF90BF906B
:100AE000AF9008950F931F93CF93DF9300D000D062
:100AF000CDB7DEB78C019A01AB01FC0184819581F1
:100B000029833A834B835C83B1D062E0F80184810E
:100B10009581C2D0F80164817581C801E9DE29811F
:100B20003A814B815C8162E0C8010F900F900F9079
:100B30000F90DF91CF911F910F9173CF61E08DE006
:100B40000C946D1760E08DE00C946D1761E08DE002
:100B50000C946D1760E08DE00C946D17FC017183AF
:100B600060835383428315821482178208950F9302
:100B70001F93CF938C01C62FFC0184819581228124
:100B800033818217930758F5478150E0473051056C
:100B900040F54C5C5F4FFA010C94FA196A3AF9F48B
:100BA000F8011582148281E018C082E015C083E04C
:100BB00013C084E0F80187836683611112C007C007
:100BC0000397F801268130E08217930750F085E003
:100BD00004C06B3B21F486E0F801878302C080E00B
:100BE0000EC0F801A081B181848195819C012F5FA5
:100BF0003F4F35832483A80FB91FCC9381E0CF9159
:100C00001F910F9108950F931F93CF93DF93EC01E2
:100C10008B018F818630E9F4E881F9816181C80117
:100C20002DD0E881F9816281C80136D0E881F9814F
:100C30006381C80137D0C80138D0E881F981438188
:100C400050E0BF016C5F7F4F0E94211C1F8281E03A
:100C500001C080E0DF91CF911F910F910895FC01B9
:100C6000108211821282748363830895FC011082C2
:100C7000118212820895FC0180810895FC01608335
:100C8000089520915F052F5F20935F05FC0120836D
:100C90000895FC0181810895FC0161830895FC01A0
:100CA00082810895FC0162830895FC01838194810F
:100CB0000895DC0112968D919C911397DC01ED91C2
:100CC000FC910190F081E02D0994DC0112968D9148
:100CD0009C911397DC01ED91FC91640F751F0280CC
:100CE000F381E02DA901099425E731E0FC0131836E
:100CF0002083738362830895DC0112968D919C9109
:100D00001397DC01ED91FC910480F581E02D0994AD
:100D1000DC0112968D919C911397DC01ED91FC9171
:100D20000680F781E02D0994640F751FA901FC016D
:100D3000828193810C94701529E831E0FC013183A4
:100D400020837383628308959A01DC01ED91FC9105
:100D50000084F185E02D40E050E009940895089565
:100D6000089580E008950895CF92DF92EF92FF9268
:100D70000F931F93CF93DF938C0179016115710558
:100D8000B9F021153105A1F0EB01C40FD51F6E019B
:100D9000CE018C199D098E159F0554F46991D801D7
:100DA000ED91FC910480F581E02DC8010995F0CF0B
:100DB000DF91CF911F910F91FF90EF90DF90CF9037
:100DC000089580E090E008950895089580E00895E2
:100DD0009A01DC01ED91FC910484F585E02D40E061
:100DE00050E00994CF92DF92EF92FF920F931F93FE
:100DF000CF93DF938C01EB017A016901209731F1E8
:100E0000DC01ED91FC910084F185E02D09958F3F87
:100E1000BFEF9B07F1F0EC0EFD1EF7018083C1E0F0
:100E2000D0E0CC15DD05C4F4D801ED91FC9100842F
:100E3000F185E02DC80109958F3FBFEF9B0761F059
:100E4000F701EC0FFD1F80832196EBCF80E090E04F
:100E500004C08FEF9FEF01C0CE01DF91CF911F91B2
:100E60000F91FF90EF90DF90CF9008950895EF924B
:100E7000FF920F931F93CF93DF93EC017B0100E070
:100E800010E00E151F05A1F0E881F9810280F381C1
:100E9000E02DCE0109951816190654F4E881F98160
:100EA0000084F185E02DCE0109950F5F1F4FE9CF3A
:100EB000C801DF91CF911F910F91FF90EF9008959E
:100EC000CF93DF93DC01462F12968D919C9113975F
:100ED000EC01E881F9810084F185E02D14966D9193
:100EE0007C911597EB0121961596DC93CE93149780
:100EF000DF91CF9109940F931F93CF93DF93EC0170
:100F000089018A819B81DC01ED91FC91640F751F41
:100F1000AC81BD810284F385E02DAB01BD01099553
:100F20008C819D81800F911F9D838C83DF91CF9158
:100F30001F910F910895FC01208531856217730779
:100F400010F4758364830895FC012481358137830F
:100F50002683089581E00895FC0126813781358339
:100F600024830895FB0120813181DC012D933C9382
:100F700042815381D90118970D90BC91A02DA80FE3
:100F8000B91F4D935C9324813581DC01ED91FC9177
:100F90003A970190F081E02DE80FF91F318320830B
:100FA00008950F931F93CF93DF93EC018B0183EB95
:100FB00091E0998388838FE991E09B878A8767EE28
:100FC00071E0CE01CFDF8BEF91E0998388838BE1D5
:100FD00092E09B878A871B830A831D821C821F8263
:100FE0001E82F8018781908599878887DF91CF914C
:100FF0001F910F910895DC01ED91FC913A972081AA
:101000003181820F931F5CCFDC01ED91FC913E9703
:101010000190F081E02D8E0F9F1F6DCFDC01ED91CF
:10102000FC91709720813181820F931F8DCFDC015D
:10103000ED91FC91729720813181820F931F8ACFAD
:10104000DC01ED91FC91749720813181820F931F17
:1010500083CFFC018285938546815781228133812C
:10106000841B950B281739070CF4C9010895CF93F9
:10107000DF93DC0116966D917C9117971A968D91EE
:101080009C911B9768177907A0F414968D919C91F9
:101090001597EC01E881F9810484F585E02D9B0129
:1010A0002F5F3F4F17963C932E931697DF91CF916A
:1010B00009948FEF9FEFDF91CF9108950F931F93C6
:1010C000CF93DF93EC01AE81BF818A859B858A1B1C
:1010D0009B0B8217930708F49C018C819D81FC0176
:1010E00000811181460F571FF80106851785BD0144
:1010F000F80109952E813F81280F391F3F832E83E8
:10110000DF91CF911F910F910895FC0126813781C6
:1011100031872087089581E00895FC01208531857D
:10112000378326830895FC01228533856217730770
:1011300010F4778366830895FC0189E792E0918338
:1011400080838DE992E09587848788E090E093839F
:101150008283758364831782168211861086DB0171
:1011600017968D919C911897938782870895DC013B
:10117000ED91FC91389720813181820F931F69CFC7
:10118000DC01ED91FC913E9720813181820F931F0C
:101190006ECFDC01ED91FC9172970190F081E02D12
:1011A0008E0F9F1F8BCFDC01ED91FC913A97208130
:1011B0003181820F931FA9CFDC01ED91FC913C9707
:1011C00020813181820F931FA6CFDC01ED91FC912C
:1011D000749720813181820F931F9FCFDC01ED91A5
:1011E000FC910680F781E02D0994DC01ED91FC91E2
:1011F0000480F581E02D0994DC0112968D919C917B
:101200001397DC01ED91FC910480F581E02D0994A8
:10121000CF92DF92EF92FF920F931F93CF93DF93C2
:101220007C018B016A01EB01CE01801B910B8C15B7
:101230009D0574F4D70112968D919C911397699135
:10124000DC01ED91FC910480F581E02D0995ECCF56
:10125000DF91CF911F910F91FF90EF90DF90CF9092
:101260000895DC0112968D919C911397DC01ED910C
:10127000FC910480F581E02D0994DC0112968D919A
:101280009C911397DC01ED91FC910480F581E02D98
:101290000994DC0112968D919C911397DC01ED91DC
:1012A000FC910480F581E02D0994CF93DF9300D069
:1012B000CDB7DEB77A836983DC01ED91FC910680BE
:1012C000F781E02D42E050E0BE016F5F7F4F09954E
:1012D0000F900F90DF91CF910895DC01ED91FC917B
:1012E0000684F785E02D0994DC01ED91FC910684DC
:1012F000F785E02D0994CF93DF9300D000D0CDB7D0
:10130000DEB749835A836B837C83DC01ED91FC91CA
:101310000680F781E02D44E050E0BE016F5F7F4F13
:1013200009950F900F900F900F90DF91CF91089536
:10133000DC01ED91FC910488F589E02D0994CF93AF
:10134000DF9300D000D0CDB7DEB749835A836B83DB
:101350007C83DC01ED91FC910680F781E02D44E077
:1013600050E0BE016F5F7F4F09950F900F900F9077
:101370000F90DF91CF910895CF93DF9300D000D0ED
:10138000CDB7DEB749835A836B837C83DC01ED9153
:10139000FC910680F781E02D44E050E0BE016F5FD4
:1013A0007F4F09950F900F900F900F90DF91CF9185
:1013B000089523EB32E0FC01318320837383628341
:1013C0000895DC0112968D919C911397DC01ED91AB
:1013D000FC910084F185E02D09950895DC011296B9
:1013E0008D919C911397DC01ED91FC910084F18526
:1013F000E02D099521E0892B09F420E0822F089542
:10140000DC0112968D919C911397DC01ED91FC917A
:101410000084F185E02D09950895DC0112968D91E7
:101420009C911397DC01ED91FC910084F185E02DF6
:1014300009950895CF93DF9300D0CDB7DEB71A8218
:101440001982DC01ED91FC910688F789E02D42E0DC
:1014500050E0BE016F5F7F4F099589819A810F909F
:101460000F90DF91CF910895DC01ED91FC91008404
:10147000F185E02D0994DC01ED91FC910084F1856A
:10148000E02D0994CF93DF9300D000D0CDB7DEB725
:1014900019821A821B821C82DC01ED91FC91068864
:1014A000F789E02D44E050E0BE016F5F7F4F099562
:1014B00069817A818B819C810F900F900F900F90A2
:1014C000DF91CF910895DC01ED91FC910684F785C1
:1014D000E02D0994CF93DF9300D000D0CDB7DEB7D5
:1014E00019821A821B821C82DC01ED91FC91068814
:1014F000F789E02D44E050E0BE016F5F7F4F099512
:1015000069817A818B819C810F900F900F900F9051
:10151000DF91CF910895DC01ED91FC910684F78570
:10152000E02D09950C946A1ACF92DF92EF92FF9208
:101530000F931F93CF93DF937C018B016A01EB0123
:10154000CE01801B910B8C159D0574F4D70112966A
:101550008D919C911397DC01ED91FC910084F185B4
:10156000E02D09958993ECCFDF91CF911F910F91D9
:10157000FF90EF90DF90CF900895DC0112968D914F
:101580009C911397DC01ED91FC910088F189E02D8D
:10159000099423ED32E0FC0131832083738362835D
:1015A000089523E333E0FC013183208325E533E014
:1015B000338722870895FC01A281B38186819781B8
:1015C0009C012F5F3F4F37832683A80FB91F6C9371
:1015D0000895FC012681378131872087089581E0B5
:1015E0000895FC0120853185378326830895FC0109
:1015F000248135816217730710F477836683089519
:1016000023E333E0FC013183208325E533E0338796
:1016100022870C941416EF92FF920F931F93CF938F
:10162000DF93EC018B017A0183EB91E0998388834E
:101630008FE991E09B878A876FE173E0CE0192DCAE
:1016400083E393E09983888385E593E09B878A878A
:101650001B830A83FD82EC821F821E8219861886F4
:10166000DF91CF911F910F91FF90EF900895DC01D2
:10167000ED91FC913A9720813181820F931F9BCF8E
:10168000DC01ED91FC91709720813181820F931FD5
:10169000A0CFDC01ED91FC91729720813181820F06
:1016A000931F9DCFDC01ED91FC91749720813181D6
:1016B000820F931F96CFFC0181E090E04481558119
:1016C000268137814217530711F480E090E0089596
:1016D000FC012681378131872087089581E00895B4
:1016E000FC0186819781248135818217930760F4FC
:1016F000A281B3819C012F5F3F4F37832683A80FC0
:10170000B91F8C9190E008958FEF9FEF0895FC0131
:1017100020853185378326830895FC012481358116
:101720006217730710F4778366830895FC0183EBD7
:1017300093E09183808385ED93E093878287738321
:10174000628355834483118610861782168208951A
:10175000DC01ED91FC91389720813181820F931F3C
:10176000AACFDC01ED91FC913A9720813181820F63
:10177000931FAECFDC01ED91FC913C97208131812C
:10178000820F931FABCFDC01ED91FC913E9720813E
:101790003181820F931FA4CFDC01ED91FC917497EE
:1017A00020813181820F931FB2CF21E034E0FC0110
:1017B000318320830895CF93DF931F92CDB7DEB797
:1017C0004983DC01ED91FC910480F581E02D21E05D
:1017D00030E0AE014F5F5F4F09950F90DF91CF91E1
:1017E0000895CF93DF931F92CDB7DEB7DC01ED9163
:1017F000FC910684F785E02D21E030E0AE014F5FDB
:101800005F4F09958F3FBFEF9B0711F0898190E0F3
:101810000F90DF91CF910895AF92BF92CF92DF9258
:10182000EF92FF920F931F93CF93DF936C017B0195
:101830005A01E901DC0117968D919C911897681760
:10184000790750F5861B970B33278217930708F407
:10185000EC0100E010E01C161D060CF5F601858178
:1018600096810190F081E02D9E018C179D070CF46C
:101870009C010680F781E02DA501B701C6010995FD
:101880001816190664F4080F191FE80EF91EA80EA1
:10189000B91EC81BD90BDFCF8FEF9FEF01C0C80166
:1018A000DF91CF911F910F91FF90EF90DF90CF903C
:1018B000BF90AF90089521E034E0FC013183208394
:1018C0000C941416EF92FF920F931F93CF93DF9314
:1018D000EC017A01890167706065FAD18BEE93E0C3
:1018E00099838883FE82ED8218870F83DF91CF91E1
:1018F0001F910F91FF90EF900895FB01DC01159669
:101900002D913C911697C9010197860F971FB90138
:101910000E94B119629FC001639F900D729F900D4C
:1019200011248E1B9F0B0895AF92BF92CF92DF922E
:10193000EF92FF920F931F93CF93DF937C018B0164
:101940005A01E901DC0117968D919C911897861B2D
:10195000970B71F133278217930708F4EC01B80154
:10196000C701CBDF6E01DD248C159D0508F46C01E9
:10197000C114D10489F0D701ED91FC910480F58167
:10198000E02D9601A501B801C70109950C0D1D1D9B
:10199000AC0CBD1CCC19DD091C161D064CF4F7015E
:1019A000858196816E018C179D072CF76C01E3CF22
:1019B000DF91CF911F910F91FF90EF90DF90CF902B
:1019C000BF90AF9008956F927F928F929F92AF9247
:1019D000BF92CF92DF92EF92FF920F931F93CF931C
:1019E000DF93CDB7DEB77C016B0189016DB67EB6A2
:1019F000DC0115968D919C911697EDB7FEB7E81B0B
:101A0000F90B0FB6F894FEBF0FBEEDBF2DB73EB772
:101A10002F5F3F4F490117968D919C91189768173A
:101A2000790708F03FC0861B970B98013327821770
:101A3000930708F48C01F401D70115968D919C91C0
:101A400016979F01281939092817390714F441936B
:101A5000F3CFB601C70151DF1816190634F45C0143
:101A6000081719076CF458010BC010161106C4F4BE
:101A7000F701858196815801801791070CF45C016C
:101A8000D701ED91FC910480F581E02D9501A40131
:101A9000B601C7010995CA0CDB1C0A191B09E5CF61
:101AA000C80102C08FEF9FEF0FB6F8947EBE0FBE45
:101AB0006DBEDF91CF911F910F91FF90EF90DF905E
:101AC000CF90BF90AF909F908F907F906F90089530
:101AD000CF93DF93EC012FEF3FE740E450E0F2DEDD
:101AE00083E491E09983888362E0CE01DF91CF9116
:101AF000F1C0E4C1EF92FF921F93CF93DF931F9247
:101B0000CDB7DEB7162F7A012983DDD1682F80E6A5
:101B100095E07CD2612F80E695E030D22981422F7A
:101B200050E0B70180E695E0FCD180E695E00F90AB
:101B3000DF91CF911F91FF90EF90E5C2CF93DF939C
:101B40001F92CDB7DEB7498321E0AE014F5F5F4FF3
:101B5000D1DF0F90DF91CF910895DF92EF92FF9246
:101B60000F931F93CF93DF93EC01F62E142F052FC5
:101B7000E22EA9D1682F80E695E048D26F2D80E64D
:101B800095E0FCD160E080E695E04AD2882329F018
:101B900090E091958195910936C0CE0194D14E2D5A
:101BA000682F80E695E0ABD2CAE080E695E08ED162
:101BB000892B29F4C150A1F48BEF9FEF24C0CC23D3
:101BC000D9F3D12EC12FD02FFC2EFD18FE1428F4EE
:101BD00080E695E07BD1892B41F48F2D90E013C0F6
:101BE00081E090E00E94C516E0CF80E695E076D1D6
:101BF0008C0140E150E0BC0186EF95E00ED717FD67
:101C0000ECCF0993E1CFDF91CF911F910F91FF901E
:101C1000EF90DF900895CF93DF931F92CDB7DEB79B
:101C200021E0AE014F5F5F4F98DF97FD02C08981D1
:101C300090E00F90DF91CF910895EF92FF921F9364
:101C4000CF93DF9300D0CDB7DEB77C01162F2A8368
:101C50004983E1DF4981942F909598232A8142237B
:101C6000942B492F612FC7010F900F90DF91CF91D7
:101C70001F91FF90EF9062CF21E034E0FC013183AF
:101C80002083089521E034E0FC0131832083CCC718
:101C9000DC01ED91FC910190F081E02D09940F930E
:101CA0001F93CF93DF931F92CDB7DEB78C010296BF
:101CB000498304D181E094E0F801918380834981D4
:101CC000438314820F90DF91CF911F910F9108955C
:101CD00042E0E5CFFC0163830895CF92DF92EF925B
:101CE000FF920F931F93CF93DF93EC016B018A0157
:101CF00079010296E8D0682F80E695E087D1CB8104
:101D0000CC23A1F08C2F90E0019723E0880F991F3E
:101D10002A95E1F7B60102C0769567958A95E2F7B4
:101D2000772780E695E0B4DFC150EACFA701B8017C
:101D300080E695E0F6D080E695E0E5D165E070E0DC
:101D400080E090E0DF91CF911F910F91FF90EF9095
:101D5000DF90CF90E3C72F923F924F925F926F92A6
:101D60007F928F929F92AF92BF92CF92DF92EF922B
:101D7000FF920F931F93CF93DF9300D01F92CDB7A5
:101D8000DEB79B838A834B012A0189018FEF820F83
:101D90008983AA80BB8092E0A90EB11CC50193D0B3
:101DA000682F80E695E032D1EA81FB816380712C57
:101DB000130143E0220C331C4A95E1F7C12CD12CCE
:101DC000E12CF12CE8E0CE1AD1086E147F0491F0DA
:101DD000B1016C0D7D1DC40102C0969587956A9571
:101DE000E2F7BC01772780E695E052DF9FEFE91A22
:101DF000F90AE8CF80E695E086D1882329F090E0C3
:101E000091958195910944C065E070E080E090E093
:101E100085D7C50158D0682F70E0A80180E695E00D
:101E200070D13FE7F32E80E695E050D0892B49F43E
:101E3000FA9419F48BEF9FEF2BC081E090E0A5D7C7
:101E4000F2CFFF20B9F3E12CF12C8981C82ED12CDF
:101E5000E016F106E4F480E695E038D0892BB9F07D
:101E600080E695E03BD097FD12C0EA81FB8124819A
:101E7000213021F496012E193F0901C09701F2018A
:101E8000E20FF31F8083FFEFEF1AFF0AE1CFC701D4
:101E90000F900F900F90DF91CF911F910F91FF90B6
:101EA000EF90DF90CF90BF90AF909F908F907F90FA
:101EB0006F905F904F903F902F900895FC0160834A
:101EC00080E695E09AC0FC0180810895809190059C
:101ED00090E020919105821B910908952091910530
:101EE00080919005281750F4E22FF0E0EE56FA4F5B
:101EF000808190E02F5F2093910508958FEF9FEFF1
:101F00000895E091910580919005E81730F4F0E094
:101F1000EE56FA4F808190E008958FEF9FEF08957D
:101F20000895CF92DF92EF92FF920F931F93CF937A
:101F3000DF937C01CB018A0120916C05222389F07B
:101F4000EB016B01C40ED51ECC15DD0569F069915E
:101F5000D701ED91FC910190F081E02DC701099529
:101F6000F3CF642F0E945D18C801DF91CF911F91BC
:101F70000F91FF90EF90DF90CF900895CF93DF9374
:101F80001F92CDB7DEB7698320916C052223D1F073
:101F900020916D05203240F021E030E0FC013383D8
:101FA000228380E090E015C080916E05E82FF0E07C
:101FB000E159FA4F998190838F5F80936E058093EA
:101FC0006D0505C061E0CE0101960E945D1881E0BB
:101FD00090E00F90DF91CF910895FC01138212825F
:101FE00048EE53E060E070E0448355836683778376
:101FF0008DE094E091838083089510929105109272
:10200000900510926E0510926D059CC781E080933B
:102010006C0560938F0510926E0510926D05089502
:102020000F93062F21E040916D056FE675E08091DA
:102030008F05ECD710926E0510926D0510926C050D
:102040000F9108958F929F92AF92BF92CF92DF929D
:10205000EF92FF920F931F93CF93DF93EC01F62E35
:10206000D42E48015901EE2009F1D0DF1E2D143085
:1020700008F013E01150B8F0E881F98128E0129FD0
:10208000B0011124A501940104C0569547953795D8
:1020900027956A95D2F7CA01B9010190F081E02D28
:1020A000CE010995E7CF60E0CE01BADF4D2D413278
:1020B00008F040E22C2D62E975E08F2D5FD7109279
:1020C000910580939005DF91CF911F910F91FF9023
:1020D000EF90DF90CF90BF90AF909F908F9008953A
:1020E000CF92EF920F931F93C22EE12C00E010E0ED
:1020F0009801A8DF1F910F91EF90CF90089521E0F4
:10210000EFCF21E0EDCF61E08BCF80E695E065CFAA
:102110002091F4053091F50528173907B9F490910D
:10212000B2058091B305981789F0E091B205F0E00F
:10213000EC54FA4F80812091B20530E02F5F3F4F81
:102140002F7333272093B20590E008958FEF9FEF10
:1021500008951F93CF93DF93DC015C968D919C9142
:102160005D97009749F481E090E013969C938E93DD
:10217000129780E090E03BC05196ED91FC91529710
:1021800050962C915097322F30951FB75E964C91F8
:102190005E9741FB772770F941FD6095F894408187
:1021A000772311F0422B01C043234083EC01219798
:1021B000F1F748E0508160FF02C0522B01C0532369
:1021C0005083EC012197F1F76695415099F7808192
:1021D000772311F0832301C0822B80831FBF5C967D
:1021E0008D919C915D970197F1F781E090E0DF91EF
:1021F000CF911F91089508952091F4053091F50530
:102200002817390771F49091B2058091B30598179A
:1022100041F0E091B205F0E0EC54FA4F808190E09B
:1022200008958FEF9FEF08952091F4053091F50503
:102230002817390769F48091B3052091B20590E021
:10224000805C9F4F821B910960E470E00C94C5197B
:1022500080E090E00895E091F405F091F505E8172D
:10226000F90769F4A389B4899C91858980958923AC
:102270008C931092F5051092F40581E0089580E0AA
:1022800008951F920F920FB60F9211242F933F9330
:102290004F935F936F937F938F939F93AF93BF936E
:1022A000EF93FF93E091F405F091F505309709F471
:1022B00051C0868DA685B785958581FF04C08C9118
:1022C000892329F447C08C91892309F043C0A3894D
:1022D000B4899C918589809589238C938689978977
:1022E0000197F1F7208D318DA685B785758558E06A
:1022F00040E0C9010197F1F7842F90E0959587950B
:10230000482F6C91672309F04068515091F7868DF2
:1023100081FD40958091B30590E001968F739927D8
:102320002091B205281749F0A091B305B0E0AC5454
:10233000BA4F4C938093B30503C0868D8160868F1E
:10234000828D938D0197F1F7A389B4898C9195893A
:10235000892B8C93FF91EF91BF91AF919F918F91BA
:102360007F916F915F914F913F912F910F900FBE91
:102370000F901F9018952DE134E0FC0131832083EC
:102380006ACF1F93CF93DF93EC01162F6E8D669566
:10239000617081E06827812FA0D561E0812F64D52D
:1023A000812F90E0FC01E657FF4FE491E88BFC01A0
:1023B000E256FF4FE491F0E0EE0FFF1FE454FF4FB1
:1023C000859194919A8B898BDF91CF911F9108957C
:1023D0001F93CF93DF93EC01162F60E0812F44D53C
:1023E0008E8D81FD03C061E0812F77D51C87812F01
:1023F00090E0FC01E657FF4FE491ED87FC01E256C7
:10240000FF4FE491F0E0EE0FFF1FEE54FF4F859178
:1024100094919F878E87DF91CF911F910895FF92AE
:102420000F931F93CF93DF93EC01F62E522F1B8255
:102430001A8208EE13E020E030E00C831D832E8327
:102440003F838DE194E0998388831F8A1E8A198EC9
:10245000188E1B8E1A8E1D8E1C8E8E8D8E7F50FBBD
:1024600081F98E8F642FCE018CDF6F2DCE01DF912D
:10247000CF911F910F91FF90ABCFFC01818D228DE9
:1024800090E0805C9F4F821B91098F73992708957C
:10249000FC01918D828D981731F0828DE80FF11D2E
:1024A000858D90E008958FEF9FEF0895FC01918D49
:1024B000828D981761F0828DDF01A80FB11D5D96A6
:1024C0008C91928D9F5F9F73928F90E008958FEF14
:1024D0009FEF089584ED93E1892B41F080E090E037
:1024E000892B21F061D181110C9400000895FC0129
:1024F000848DDF01A80FB11DA35ABF4F2C91848D8D
:1025000090E001968F739927848FA689B7892C93C1
:10251000A089B1898C9180648C93938D848D98135C
:1025200006C00288F389E02D80818F7D8083089525
:10253000CF93DF93EC01888D8823C1F0EA89FB8972
:10254000808185FD05C0A889B9898C9186FD0EC062
:102550000FB607FCF5CF808185FFF2CFA889B98936
:102560008C9185FFEDCFCE01C2DFE8CFDF91CF9117
:102570000895CF92DF92FF920F931F93CF93DF9333
:102580001F92CDB7DEB76C0181E0D60158968C93CF
:1025900058975B969C915B975C968C915C9798138F
:1025A00007C05096ED91FC915197808185FD2DC01B
:1025B000F601038D10E00F5F1F4F0F731127F02EF0
:1025C000F601848DF81210C00FB607FCF9CFD601C2
:1025D0005096ED91FC915197808185FFF1CFC60116
:1025E000698385DF6981ECCF838DE80FF11DE35AA4
:1025F000FF4F6083D6015B960C935B975296ED91EB
:10260000FC915397808180620CC0D6015696ED9163
:10261000FC91579760835096ED91FC915197808182
:102620008064808381E090E00F90DF91CF911F91D3
:102630000F91FF90DF90CF900895BF92CF92DF92DD
:10264000EF92FF92CF93DF93EC016A017B01B22EF0
:10265000E889F98982E08083411581EE5807610598
:10266000710599F060E079E08DE390E0A7019601B3
:102670009FD6215031094109510956954795379503
:102680002795211580E1380790F0E889F9891082B3
:1026900060E874E88EE190E0A701960189D62150A8
:1026A0003109410951095695479537952795EC858C
:1026B000FD853083EE85FF852083188EEC89FD89AA
:1026C000B082EA89FB89808180618083EA89FB8905
:1026D000808188608083EA89FB898081806880832B
:1026E000EA89FB8980818F7D8083DF91CF91FF9084
:1026F000EF90DF90CF90BF9008951F920F920FB68A
:102700000F9211242F938F939F93EF93FF93E09158
:102710000606F09107068081E0910C06F0910D0607
:1027200082FD12C0908180910F068F5F8F73209180
:102730001006821751F0E0910F06F0E0EA50FA4FD0
:10274000958F80930F0601C08081FF91EF919F913B
:102750008F912F910F900FBE0F901F9018951F9281
:102760000F920FB60F9211242F933F934F935F93C5
:102770006F937F938F939F93AF93BF93EF93FF9349
:1027800086EF95E0B4DEFF91EF91BF91AF919F91FD
:102790008F917F916F915F914F913F912F910F900A
:1027A0000FBE0F901F90189586EF95E066DE21E032
:1027B000892B09F420E0822F08951092F9051092D8
:1027C000F80588EE93E0A0E0B0E08093FA059093DE
:1027D000FB05A093FC05B093FD058DE294E090937A
:1027E000F7058093F60585EC90E0909303068093BF
:1027F000020684EC90E0909305068093040680EC3A
:1028000090E0909307068093060681EC90E0909309
:1028100009068093080682EC90E090930B06809363
:102820000A0686EC90E090930D0680930C061092B9
:102830000F061092100610921106109212060895BB
:10284000CF92DF92EF92FF920F931F93CF93DF937C
:102850007C016A01EB0100E010E00C151D0571F030
:102860006991D701ED91FC910190F081E02DC701B4
:102870000995892B19F00F5F1F4FEFCFC801DF912A
:10288000CF911F910F91FF90EF90DF90CF9008951F
:102890006115710581F0DB010D900020E9F7AD01B4
:1028A00041505109461B570BDC01ED91FC91028010
:1028B000F381E02D099480E090E00895E9CFDC01F8
:1028C000ED91FC910190F081E02D099469E374E0B1
:1028D000DFCF0F931F93CF93DF93EC01D9DF8C01F0
:1028E000CE01F4DF800F911FDF91CF911F910F91E7
:1028F00008958F929F92AF92BF92DF92EF92FF92D4
:102900000F931F93CF93DF93CDB7DEB7A1970FB689
:10291000F894DEBF0FBECDBF7C01F42FD52ECB01C6
:1029200019A2223008F42AE08E010F5D1F4F822E7B
:10293000912CA12CB12C6F2F7D2DA501940138D5A0
:10294000F22FD32ECA01015011096A3010F4E0E3CE
:1029500001C0E7E3E60FD801EC93232B242B252BB2
:1029600051F7B801C70194DFA1960FB6F894DEBF06
:102970000FBECDBFDF91CF911F910F91FF90EF90D0
:10298000DF90BF90AF909F908F900895CF92DF928D
:10299000EF92FF920F931F93CF93DF93EC016A01A5
:1029A0007B012115310579F4E881F9810190F081ED
:1029B000E02D642FDF91CF911F910F91FF90EF9049
:1029C000DF90CF9009942A303105D9F477FF18C0F1
:1029D0006DE275DF8C0144275527BA014C195D095A
:1029E0006E097F092AE0CE0184DF800F911FDF91FD
:1029F000CF911F910F91FF90EF90DF90CF900895AE
:102A00002AE0B701A601CE01DF91CF911F910F916E
:102A1000FF90EF90DF90CF906CCF0F931F93CF93E9
:102A2000DF93EC019A01AB01662757FD6095762F85
:102A3000ADDF8C01CE014ADF800F911FDF91CF9176
:102A40001F910F9108952115310541F4DC01ED919D
:102A5000FC910190F081E02D642F09944ACF0F93EF
:102A60001F93CF93DF93EC019A01462F50E060E073
:102A700070E0E9DF8C01CE0129DF800F911FDF912B
:102A8000CF911F910F9108950F931F93CF93DF93D1
:102A9000EC0115D1688779878A879B87E881F9815E
:102AA0000680F781E02DCE01099597FF14C007D16C
:102AB000088519852A853B85601B710B820B930B5A
:102AC0000C811D812E813F8160177107820793075A
:102AD00028F38FEF9FEFDF91CF911F910F91089512
:102AE000CF92DF92EF92FF920F931F93CF93DF93DA
:102AF0007C016A01EB0100E010E00C151D0541F0BE
:102B0000C701C2DF97FD04C089930F5F1F4FF5CF48
:102B1000C801DF91CF911F910F91FF90EF90DF904F
:102B2000CF90089508958230E8F4E82FF0E0EE0F9A
:102B3000FF1FEA5FFE4F71836083813041F0809117
:102B400069008C7F842B80936900E89A08958091B6
:102B50006900440F551F440F551F837F842B8093BA
:102B60006900E99A0895823078F4813011F0E8988C
:102B700001C0E998E82FF0E0EE0FFF1FEA5FFE4F7B
:102B800082E995E19183808308951F920F920FB699
:102B90000F9211242F933F934F935F936F937F93E3
:102BA0008F939F93AF93BF93EF93FF93E0910601B1
:102BB000F09107010995FF91EF91BF91AF919F911E
:102BC0008F917F916F915F914F913F912F910F90D6
:102BD0000FBE0F901F9018951F920F920FB60F9275
:102BE00011242F933F934F935F936F937F938F9312
:102BF0009F93AF93BF93EF93FF93E0910801F09100
:102C000009010995FF91EF91BF91AF919F918F912C
:102C10007F916F915F914F913F912F910F900FBED8
:102C20000F901F90189509D679C51F920F920FB675
:102C30000F9211242F933F938F939F93AF93BF9342
:102C40008091940690919506A0919606B091970672
:102C50003091930623E0230F2D3720F40196A11D18
:102C6000B11D05C026E8230F0296A11DB11D2093BA
:102C700093068093940690939506A0939606B0933E
:102C800097068091980690919906A0919A06B09126
:102C90009B060196A11DB11D8093980690939906FD
:102CA000A0939A06B0939B06BF91AF919F918F918D
:102CB0003F912F910F900FBE0F901F9018952FB737
:102CC000F894609194067091950680919606909183
:102CD00097062FBF08953FB7F8948091980690917A
:102CE0009906A0919A06B0919B0626B5A89B05C0AF
:102CF0002F3F19F00196A11DB11D3FBF6627782F08
:102D0000892F9A2F620F711D811D911D42E0660F60
:102D1000771F881F991F4A95D1F708958F929F9228
:102D2000AF92BF92CF92DF92EF92FF926B017C0144
:102D3000D2DF4B015C01C114D104E104F104E1F0E4
:102D40000FD3C9DF681979098A099B09683E734066
:102D50008105910580F321E0C21AD108E108F1084C
:102D600088EE880E83E0981EA11CB11CC114D1040A
:102D7000E104F10431F7DFCFFF90EF90DF90CF90C7
:102D8000BF90AF909F908F9008958230910538F05A
:102D9000880F991F880F991F05970197F1F70895DC
:102DA000789484B5826084BD84B5816084BD85B526
:102DB000826085BD85B5816085BDEEE6F0E08081ED
:102DC00081608083E1E8F0E010828081826080830E
:102DD000808181608083E0E8F0E080818160808391
:102DE000E1EBF0E0808184608083E0EBF0E08081C3
:102DF00081608083EAE7F0E0808184608083808165
:102E0000826080838081816080838081806880830C
:102E10001092C1000895833081F028F4813099F038
:102E20008230A1F008958730A9F08830B9F084305D
:102E3000D1F4809180008F7D03C0809180008F77D6
:102E400080938000089584B58F7702C084B58F7D0C
:102E500084BD08958091B0008F7703C08091B00049
:102E60008F7D8093B0000895CF93DF9390E0FC01B5
:102E7000E657FF4F2491FC01E256FF4F84918823CF
:102E800049F190E0880F991FFC01EA53FF4FA5918B
:102E9000B49184549F4FFC01C591D4919FB76111A7
:102EA00008C0F8948C91209582238C93888182238A
:102EB0000AC0623051F4F8948C91322F30958323FC
:102EC0008C938881822B888304C0F8948C91822B08
:102ED0008C939FBFDF91CF9108950F931F93CF9352
:102EE000DF931F92CDB7DEB7282F30E0F901EA5803
:102EF000FF4F8491F901E657FF4F1491F901E25613
:102F0000FF4F04910023C1F0882319F0698383DF08
:102F10006981E02FF0E0EE0FFF1FE454FF4FA59111
:102F2000B4919FB7F8948C91611103C010958123DF
:102F300001C0812B8C939FBF0F90DF91CF911F9188
:102F40000F9108951092090781E08093070710926E
:102F5000060761E082E1C1DF61E083E1BEDFE9EB0A
:102F6000F0E080818E7F808380818D7F808388E404
:102F70008093B80085E48093BC000895413208F046
:102F800043C0909109079111FCCF91E090930907FC
:102F9000209307072FEF20939C061092E106240F41
:102FA0002093E0069093080790910807880F892BDB
:102FB0008093080780910607813061F4109206071C
:102FC000809108078093BB008091BC0083FDF8CFFF
:102FD00085EC01C085EE8093BC00809109078130AB
:102FE000E1F38091E106841710F44091E10622EEAE
:102FF00036E0FB01D9018A2F821B841718F48D91CA
:103000008193F9CF842F089580E008950F93413282
:1030100008F04AC0909109079111FCCF92E090937B
:103020000907009307079FEF90939C061092E10613
:103030004093E006FB0162EE76E0DB019A2F961BDF
:10304000941718F491919D93F9CF109208079091DD
:103050000807880F892B8093080780910607813025
:1030600061F410920607809108078093BB0080915D
:10307000BC0083FDF8CF85EC01C085EE8093BC00D9
:10308000222321F0809109078230E1F380919C0690
:103090008F3F61F080919C06803251F080919C06B8
:1030A000803341F483E007C081E005C080E003C0C5
:1030B00082E001C084E00F910895613298F420917C
:1030C0000907243089F46093BE06FC0180EC96E089
:1030D000DC012A2F281B261718F421912D93F9CFF4
:1030E00080E0089581E0089582E0089585ED809361
:1030F000BC008091BC0084FDFCCF109209070895AC
:1031000085EC8093BC001092090708951F920F92DE
:103110000FB60F9211242F933F934F935F936F93AA
:103120007F938F939F93AF93BF93EF93FF93809180
:10313000B900887F803609F49DC070F5883209F4A3
:103140005CC090F4803109F455C038F4882309F448
:10315000F3C0883009F44EC0F2C0883109F44DC084
:10316000803209F45EC0EBC0803409F469C050F4C9
:10317000803309F456C0883309F0E1C080939C067F
:10318000BFDFDDC0803509F44FC0883509F45DC06C
:10319000883409F0D4C0D2C0883909F4C3C0A8F477
:1031A000883709F467C038F4883609F463C080377B
:1031B00009F460C0C4C0883809F4B4C0803909F487
:1031C0005FC0803809F0BBC05BC0803B09F482C09F
:1031D00038F4803A09F466C0883A09F47BC0AFC07D
:1031E000803C09F4A3C0883C09F4A0C0883B09F4E2
:1031F00086C0A5C08091080710C09091E10680911B
:10320000E006981770F5E091E10681E08E0F80935B
:10321000E106F0E0EE51F94F80818093BB0085EC30
:1032200082C080939C068AC0E091E10681E08E0F07
:103230008093E1068091BB00F0E0EE51F94F80836E
:103240009091E1068091E0066AC0E091E10681E09C
:103250008E0F8093E1068091BB00F0E0EE51F94FB4
:10326000808380910707811169C081E08093060700
:1032700084EA5DC083E08093090710929D06CFCF5A
:1032800080919D06803208F04DC0E0919D0681E05E
:103290008E0F80939D068091BB00F0E0E256F94FBF
:1032A0008083BDCF2DDF80919D06803230F4E09188
:1032B0009D06F0E0E256F94F108260919D0670E0A5
:1032C000E0910207F09103078EE996E009951092CC
:1032D0009D0635C084E0809309071092BF061092C6
:1032E000BE06E0910407F091050709958091BE069E
:1032F000811105C081E08093BE061092C006E09166
:10330000BF0681E08E0F8093BF06F0E0E054F94FD6
:1033100080818093BB009091BF068091BE06981774
:1033200008F47DCF85E88093BC0009C085EC8093CC
:10333000BC001092090703C010929C06D7DEFF91D3
:10334000EF91BF91AF919F918F917F916F915F911D
:103350004F913F912F910F900FBE0F901F90189596
:103360000895AA1BBB1B51E107C0AA1FBB1FA617CC
:10337000B70710F0A61BB70B881F991F5A95A9F71E
:1033800080959095BC01CD01089597FB072E16F40A
:10339000009406D077FD08D0E4DF07FC05D03EF4AA
:1033A000909581959F4F0895709561957F4F0895F1
:1033B000A1E21A2EAA1BBB1BFD010DC0AA1FBB1F39
:1033C000EE1FFF1FA217B307E407F50720F0A21BAB
:1033D000B30BE40BF50B661F771F881F991F1A9418
:1033E00069F760957095809590959B01AC01BD0142
:1033F000CF010895EE0FFF1F0590F491E02D099481
:103400000CD0BAC0B2D040F0A9D030F021F45F3F68
:1034100019F09BC05111E4C09EC0BFD098F399230E
:10342000C9F35523B1F3951B550BBB27AA27621788
:103430007307840738F09F5F5F4F220F331F441FCD
:10344000AA1FA9F333D00E2E3AF0E0E830D0915005
:103450005040E695001CCAF729D0FE2F27D0660FF2
:10346000771F881FBB1F261737074807AB07B0E831
:1034700009F0BB0B802DBF01FF2793585F4F2AF047
:103480009E3F510568F061C0ABC05F3FECF3983ED2
:10349000DCF3869577956795B795F7959F5FC9F7A4
:1034A000880F911D9695879597F90895E1E0660F2D
:1034B000771F881FBB1F621773078407BA0720F0A6
:1034C000621B730B840BBA0BEE1F88F7E09508950F
:1034D000E89409C097FB3EF49095809570956195AE
:1034E0007F4F8F4F9F4F9923A9F0F92F96E9BB2764
:1034F0009395F695879577956795B795F111F8CFE0
:10350000FAF4BB0F11F460FF1BC06F5F7F4F8F4F4A
:103510009F4F16C0882311F096E911C0772321F040
:103520009EE8872F762F05C0662371F096E8862FD8
:1035300070E060E02AF09A95660F771F881FDAF72F
:10354000880F9695879597F9089597F99F6780E872
:1035500070E060E008959FEF80EC089500240A94E5
:103560001616170618060906089500240A9412165E
:103570001306140605060895092E0394000C11F491
:10358000882352F0BB0F40F4BF2B11F460FF04C03E
:103590006F5F7F4F8F4F9F4F089557FD9058440F97
:1035A000551F59F05F3F71F04795880F97FB991FA2
:1035B00061F09F3F79F0879508951216130614065F
:1035C000551FF2CF4695F1DF08C0161617061806EC
:1035D000991FF1CF86957105610508940895E894C7
:1035E000BB2766277727CB0197F90895CF93DF9301
:1035F0008230910510F482E090E0E0910C07F091A8
:103600000D0720E030E0A0E0B0E0309739F14081D4
:10361000518148175907B8F04817590771F482814A
:103620009381109729F013969C938E9312972CC038
:1036300090930D0780930C0727C02115310531F0B9
:103640004217530718F0A901DB0101C0EF019A01ED
:10365000BD01DF010280F381E02DD7CF21153105B7
:10366000F9F0281B390B2430310580F48A819B81C5
:103670006115710521F0FB019383828304C090934F
:103680000D0780930C07FE01329644C0FE01E20F45
:10369000F31F8193919322503109398328833AC0D3
:1036A00020910A0730910B07232B41F4209102014E
:1036B0003091030130930B0720930A0720910001FA
:1036C000309101012115310541F42DB73EB74091EC
:1036D000040150910501241B350BE0910A07F0917C
:1036E0000B07E217F307A0F42E1B3F0B281739072F
:1036F00078F0AC014E5F5F4F2417350748F04E0F4E
:103700005F1F50930B0740930A078193919302C068
:10371000E0E0F0E0CF01DF91CF910895CF93DF9308
:10372000009709F487C0FC01329713821282C0917E
:103730000C07D0910D07209781F420813181280F4B
:10374000391F80910A0790910B078217930779F52B
:10375000F0930B07E0930A076DC0DE0120E030E034
:10376000AE17BF0750F412964D915C9113979D01CF
:103770004115510509F1DA01F3CFB383A2834081EA
:103780005181840F951F8A179B0771F48D919C912D
:103790001197840F951F02969183808312968D91C5
:1037A0009C911397938382832115310529F4F0931B
:1037B0000D07E0930C073EC0D9011396FC93EE93DE
:1037C00012974D915D91A40FB51FEA17FB0779F48D
:1037D00080819181840F951F0296D90111969C9347
:1037E0008E938281938113969C938E931297E0E03F
:1037F000F0E08A819B81009719F0FE01EC01F9CF7E
:10380000CE01029628813981820F931F20910A07E9
:1038100030910B072817390769F4309729F4109273
:103820000D0710920C0702C013821282D0930B076F
:10383000C0930A07DF91CF91089581E090E0F8945A
:1038400009C0FB01DC0102C001900D9241505040C3
:10385000D8F7089510E0C6EDD0E003C0FE01CCDD3E
:0C3860002296C83DD107D1F7F894FFCFA5
:10386C0000000E0720009215921500008042000007
:10387C00004200008041000080460000004600002D
:10388C008045696E697469616C697A6564006D6103
:10389C00736B3A200073657474696E673A2000008C
:1038AC0000000009020F026D0EAB0EDB0B940CF145
:1038BC000B0C0CE30C00000000131613161316006F
:1038CC000000005304550457040000000059045F25
:1038DC000400000000AF06AE065906A4066506B04B
:1038EC0006B106B30600000000E4067C06E506E619
:1038FC00068806E80694063607370700000000AF76
:10390C0006AE061316A406B406B006B106B306003E
:10391C0000000013160A0000000000000000001355
:10392C001600000000000000000000000000000075
:10393C0000F6FF0000AF06AE061316A406B406B0E0
:10394C0006B106B306FB01BF01BF01D501FB011B8C
:10395C00020A0000000000000000009B0760077BCB
:10396C0007A407AA07AC07F6FFF6FFF6FFF6FF0061
:10397C0000F6FF00000000F6FF0000AF06AE06FBED
:10398C0007A40604080E08170820080C0000000005
:10399C0000000000001316000000000000000000F2
:1039AC00000000000000000000F4FF0000E406E14D
:1039BC0006E506E6061316E806F20636073707791B
:1039CC0002790279029D02350235024D0200000C8B
:1039DC000000000000000000009308290837085E72
:1039EC000885088B088D080000F4FFF4FF0000F434
:1039FC00FFF4FFF4FFF4FF0000F4FF0000E406B74F
:103A0C0008D308DC08C008E806C908E50837070031
:103A1C00000000EE08F508FC08080931093D0949C9
:103A2C000955096D0974097B0998099F09BC09009E
:103A3C00000000E109EE09000A0D0A1A0A340A3BDB
:103A4C000A420A630A6A0A8B0A940ABD0A0A00002F
:103A5C000000000000000013160000000000000031
:103A6C00000000000000000000F6FF0000AF06AEF2
:103A7C00061316A406B406B006B106B3063303F754
:103A8C0002F7020D03330355030A00000000000087
:103A9C00000000F70AD10A000BDB0AE90AEF0AF171
:103AAC000AF6FFF6FFF6FF00000000F6FF0000002C
:103ABC0000F6FF0000AF06AE06370BA406B40640B6
:103ACC000B490B520B0A0000000000000000001311
:103ADC0016000000000000000000000000000000C4
:103AEC00000000F6FF0000E406E106E506E606131A
:103AFC0016E806F20636073707B303B303B303D54C
:103B0C00036F036F03870300000A0000000000002E
:103B1C000000008D0B5B0B680B6E0B700B870B00A2
:103B2C0000F6FF00000000F6FFF6FFF6FFF6FF00C0
:103B3C0000F6FF0000E406A80BB10BBA0BC30BE8B0
:103B4C0006F206CC0B370700000000D50B5B0C6DA2
:103B5C000EAB0EDB0B940CF10B0C0CE30C00000009
:103B6C00003C0E420E6D0EAB0E00000000BE0F911D
:103B7C000F660F6E0F810F900F00000000A9102030
:103B8C001414118810FC10FB1000000000B9122056
:103B9C00143D125612481298120D0A006E616E00F6
:0A3BAC00696E66006F7666002E0059
:00000001FF
