:100000006BC000000C9416160C943D160C949211C3
:100010000C9492110C94921186C0000084C00000D0
:1000200082C0000080C000007EC000007CC00000D4
:100030007AC0000078C0000076C0000074C00000E4
:100040000C94661670C000000C94CE130C9400142F
:100050006AC0000068C0000066C0000064C0000004
:100060000C94D71860C000001F06260628062A0632
:1000700031063A06400600000008000201000003B5
:100080000407000000000000000001020408102026
:10009000408001020408102001020408102004041A
:1000A0000404040404040202020202020303030320
:1000B00003030000000023002600290000000000C8
:1000C000250028002B0000000000240027002A0043
:1000D000FA02D6102E14640311241FBECFEFD8E00D
:1000E000DEBFCDBF14E0A0E0B1E0EEE0F9E302C076
:1000F00005900D92A836B107D9F727E0A8E6B4E03D
:1001000001C01D92AC32B207E1F710E0C6EDD0E0BD
:1001100004C02297FE010E944D1AC03DD107C9F7C5
:100120005ED20C947B1C6CCFFC0171836083538383
:1001300042831482158216821782108611860895D2
:10014000CF93DF93EC01AA81BB81ED91FC911197D4
:100150003A97808191818A0F9B1FDC01ED91FC9180
:100160000480F581E02D0995AA81BB81ED91FC9178
:1001700011973897808191818A0F9B1FDC01ED9147
:10018000FC910190F081E02D68E070E00995AA8172
:10019000BB81ED91FC9111973A97808191818A0FF3
:1001A0009B1FDC01ED91FC910084F185E02D099508
:1001B0008C83AA81BB81ED91FC9111973A97808144
:1001C00091818A0F9B1FDC01ED91FC910084F185E8
:1001D000E02D09958D83AA81BB81ED91FC9111974A
:1001E0003A97808191818A0F9B1FDC01ED91FC91F0
:1001F0000084F185E02D09958E83AA81BB81ED9164
:10020000FC9111973A97808191818A0F9B1FDC01A5
:10021000ED91FC910084F185E02D09958F83AA81F1
:10022000BB81ED91FC9111973A97808191818A0F62
:100230009B1FDC01ED91FC910084F185E02D099577
:100240008887AA81BB81ED91FC9111973A978081B3
:1002500091818A0F9B1FDC01ED91FC910084F18557
:10026000E02D09958987AA81BB81ED91FC911197B9
:100270003A97808191818A0F9B1FDC01ED91FC915F
:100280000684F785E02DDF91CF910994CF93DF931A
:10029000EC01A881B981ED91FC9111973A97808189
:1002A00091818A0F9B1FDC01ED91FC910284F38503
:1002B000E02D0995A881B981ED91FC9111973897AE
:1002C000808191818A0F9B1FDC01ED91FC9101904F
:1002D000F081E02D68E070E00995A881B981ED9189
:1002E000FC9111973A97808191818A0F9B1FDC01C5
:1002F000ED91FC910480F581E02D6C810995A88138
:10030000B981ED91FC9111973A97808191818A0F83
:100310009B1FDC01ED91FC910480F581E02D6D8146
:100320000995A881B981ED91FC9111973A97808147
:1003300091818A0F9B1FDC01ED91FC910480F58176
:10034000E02D6E810995A881B981ED91FC911197FD
:100350003A97808191818A0F9B1FDC01ED91FC917E
:100360000480F581E02D6F810995A881B981ED9117
:10037000FC9111973A97808191818A0F9B1FDC0134
:10038000ED91FC910480F581E02D68850995A881A7
:10039000B981ED91FC9111973A97808191818A0FF3
:1003A0009B1FDC01ED91FC910480F581E02D6985B6
:1003B0000995A881B981ED91FC9111973A978081B7
:1003C00091818A0F9B1FDC01ED91FC910684F785DA
:1003D000E02DDF91CF910994FC0162FF02C04483BC
:1003E00012C064FF02C045830EC060FF02C0468396
:1003F0000AC061FF02C0478306C063FF02C0408796
:1004000002C065FD4187CF0141CF81E080937C052B
:1004100008952FE134E0FC013183208308952FE11A
:1004200034E0FC01318320830C94651660E08BEF8F
:1004300094E07ED161E08BEF94E080D163E08BEFBC
:1004400094E090D140E061E08BEF94E094D144E0FF
:1004500061E08BEF94E09ED144E060E18BEF94E0AB
:10046000A4D165E08BEF94E090D160E18BEF94E054
:10047000A6D160E18BEF94E0A8D161E08BEF94E02E
:1004800057C148EE53E060E070E082E794E07BD330
:1004900081110DC062E271E084E196E00E94BA141D
:1004A00044E650E060E070E082E794E040C30895E5
:1004B00026E040E855E260E070E084E196E00E94CA
:1004C0006E1361E08DE00E94851788E694E038DEC7
:1004D000D8DFACDF42E050E065E072E080E00E94EF
:1004E000E41560E371E084E196E00C94BA14462FC1
:1004F000682F88E694E070DF99CFCF93DF9380E098
:100500000E94041684E894E015D4853059F560E023
:1005100070E089E994E00E94DE0B89E894E0CED790
:10052000C82F89E894E0CAD7D82F682F8C2FDFDF37
:100530006CE371E084E196E00E94AF1440E150E08A
:100540006C2F84E196E00E94801563E471E084E101
:1005500096E00E94AF1440E150E06D2F84E196E0F8
:100560000E94801542E050E065E072E080E0DF919B
:10057000CF910C94E41564E874E082E794E044D2EF
:100580008111BBDF0E94B01628EE33E040E050E05E
:100590000E94291A672B682B692B39F06DE471E0F2
:1005A00084E196E00E94BA146CDF80917C05882378
:1005B000A9F010927C056CE08DEF94E00E945C0E37
:1005C00084FF0CC060E18DEF94E00E945C0E40E17E
:1005D00050E0682F84E196E00C94801508950E9405
:1005E000211766DFCBEBD2E1C6DF2097E9F30E944B
:1005F000BB12FACF0F931F9360E08BEF94E07ED095
:1006000060EA82EF94E00E94B90D20E045E064E0EA
:1006100083ED94E00E94601263ED74E08FEC94E04F
:10062000DCD363ED74E08BEC94E0AFD362EF74E065
:100630008FEB94E007D562EF74E081EB94E0CDD5C9
:100640004BE350E061E475E085EA94E00E945C0BC6
:100650004BE350E061E475E089E994E00E94E70B28
:1006600069EC74E085E994E0F5D66DEB74E081E91E
:1006700094E0E0D76FEA74E08DE894E0EBD663EAAB
:1006800074E089E894E0D6D761E475E084E894E00A
:1006900037D340E450E061E075E08CE794E0AFD2FE
:1006A0000FEC14E02BEC34E044E854E06CE774E029
:1006B00082E794E030D141EB54E06FEB74E088E6E0
:1006C00094E01F910F9130CD82E794E017D181E53E
:1006D00093E09093A6048093A50483E793E090931E
:1006E000B0048093AF0483ED94E00E940C128FE17C
:1006F00094E09093F3048093F2040895CF93DF93F2
:10070000EC0127E731E0FC0121933193CF016C61CB
:100710000E94CA0D81E891E0998388831B828C81B5
:100720008C7F8C838D818D7F8D83DF91CF91089518
:10073000262F41E06AE202960C946E0E1F93CF932F
:10074000DF93EC01162F262F43E06EE002960E9405
:100750006E0E13708C818C7F812B8C83DF91CF91F7
:100760001F910895262F220F220F220F48E36AE2DD
:1007700002960C946E0E20E060FB26F940FB27F9F0
:10078000422F61E102960C94EF0D462F62E1029632
:100790000C94EF0D47706295660F660F607C642BBA
:1007A000462F63E102960C94EF0D4770660F660FBB
:1007B000660F642B462F64E102960C94EF0D462FD2
:1007C000262F6DE202960C946E0E462F262F6EE2B7
:1007D00002960C946E0E0F931F93CF93DF93CDB7B9
:1007E000DEB72C970FB6F894DEBF0FBECDBF8C01DD
:1007F0002CE0442371F0EAE0F1E0DE011196019073
:100800000D922A95E1F7FB01608170E080E090E0B5
:1008100013C0E6E1F1E0DE01119601900D922A95F8
:10082000E1F7FB01608170E0762F66278181682BFC
:10083000882777FD8095982F0E94BB1AF8012481A4
:100840002370E1E0F0E0EC0FFD1F34E0239FE00DAA
:10085000F11D112420813181428153810E94511A5E
:100860002C960FB6F894DEBF0FBECDBFDF91CF91AF
:100870001F910F910895BF92CF92DF92EF92FF9256
:100880000F931F93CF93DF93CDB7DEB78C01CDB617
:10089000DEB6FC01858181FBBB24B0F881FF02C07C
:1008A00021E001C022E08DB79EB7821B91090FB6EF
:1008B000F8949EBF0FBE8DBFEDB7FEB731967F0196
:1008C000AF01C80102960E94FE0D4B2DB701C80171
:1008D00082DF0FB6F894DEBE0FBECDBEDF91CF91A2
:1008E0001F910F91FF90EF90DF90CF90BF900895F0
:1008F00061E0C1CF63E0BFCF65E0BDCF2BE831E061
:10090000FC013183208308952BE831E0FC01318321
:1009100020830C9465160F931F93FC018BE891E0E4
:1009200091838083738362835583448337832683D3
:10093000118700871F910F910895DF92EF92FF9228
:100940000F931F93CF93DF93EC018B0148D1C80124
:10095000E9D18E819F81DC01ED91FC910480F581CC
:10096000E02D6AEA0995EE81FF810190F081E02D8A
:10097000E480F580C801D0D1682F8E819F81F70176
:100980000995EE81FF810190F081E02DE480F580F2
:10099000C801D0D1682F8E819F81F7010995EE8122
:1009A000FF810190F081E02DE480F580C801C8D17D
:1009B000682F8E819F81F7010995EE81FF8101905B
:1009C000F081E02DE680F780C801BAD1D82EC801A9
:1009D000BDD1BC014D2D50E08E819F81F70109955D
:1009E0008E819F81DC01ED91FC910480F581E02DE9
:1009F0006BEB0995F8D081E0DF91CF911F910F91BA
:100A0000FF90EF90DF900895FF920F931F93CF9385
:100A1000DF93EC018B0188859985DC01ED91FC91D8
:100A20000280F381E02D09951816190684F4888553
:100A30009985DC01ED91FC910084F185E02D09950B
:100A4000682F8A819B81E4D0F82E811102C0F12C9D
:100A500006C0B8018A819B8127D18823E1F28F2DBE
:100A6000DF91CF911F910F91FF900895AF92BF92A8
:100A7000CF92DF92EF92FF921F93CF93DF9300D03C
:100A800000D0CDB7DEB75C01162F29833A834B83A4
:100A90005C83ADD00E94B0166B017C0129813A8144
:100AA0004B815C81C20ED31EE41EF51EF5016481EC
:100AB0007581C50129833A834B835C83A5DF298136
:100AC0003A814B815C81882351F0F50184819581C5
:100AD00031D129813A814B815C818117B1F0211597
:100AE00031054105510511F329833A834B835C831A
:100AF0000E94B01629813A814B815C816C157D057D
:100B00008E059F0598F280E001C081E0898373D053
:100B100089810F900F900F900F90DF91CF911F91CF
:100B2000FF90EF90DF90CF90BF90AF9008950F931C
:100B30001F93CF93DF9300D000D0CDB7DEB78C01E9
:100B40009A01AB01FC018481958129833A834B830F
:100B50005C83DDD062E0F80184819581EED0F801FC
:100B600064817581C801E9DE29813A814B815C810C
:100B700062E0C8010F900F900F900F90DF91CF911E
:100B80001F910F9173CF0F931F93CF93DF9300D0DB
:100B900000D0CDB7DEB78C019A01AB01FC01848196
:100BA000958129833A834B835C83B1D066E0F80159
:100BB00084819581C2D0F80164817581C801BDDE50
:100BC00029813A814B815C8161E0C8010F900F90CF
:100BD0000F900F90DF91CF911F910F9147CF61E060
:100BE0008DE00C94BE1760E08DE00C94BE1761E0C0
:100BF0008DE00C94BE1760E08DE00C94BE17FC01F4
:100C0000718360835383428315821482178208950F
:100C10000F931F93CF938C01C62FFC018481958184
:100C2000228133818217930758F5478150E047307E
:100C3000510540F54C5C5F4FFA010C944B1A6A3A2F
:100C4000F9F4F8011582148281E018C082E015C021
:100C500083E013C084E0F80187836683611112C0CA
:100C600007C00397F801268130E08217930750F000
:100C700085E004C06B3B21F486E0F801878302C065
:100C800080E00EC0F801A081B181848195819C0132
:100C90002F5F3F4F35832483A80FB91FCC9381E08A
:100CA000CF911F910F9108950F931F93CF93DF93CF
:100CB000EC018B018F818630E9F4E881F981618153
:100CC000C8012DD0E881F9816281C80136D0E88160
:100CD000F9816381C80137D0C80138D0E881F98132
:100CE000438150E0BF016C5F7F4F0E94721C1F82E6
:100CF00081E001C080E0DF91CF911F910F910895B5
:100D0000FC01108211821282748363830895FC01B6
:100D10001082118212820895FC0180810895FC01E5
:100D20006083089520917D052F5F20937D05FC0150
:100D300020830895FC0181810895FC016183089559
:100D4000FC0182810895FC0162830895FC01838186
:100D500094810895DC0112968D919C911397DC018A
:100D6000ED91FC910190F081E02D0994DC01129647
:100D70008D919C911397DC01ED91FC91640F751F8F
:100D80000280F381E02DA901099423E931E0FC01FF
:100D900031832083738362830895DC0112968D91E1
:100DA0009C911397DC01ED91FC910480F581E02D7D
:100DB0000994DC0112968D919C911397DC01ED91C1
:100DC000FC910680F781E02D0994640F751FA9013D
:100DD000FC01828193810C94C11527EA31E0FC016A
:100DE000318320837383628308959A01DC01ED913E
:100DF000FC910084F185E02D40E050E009940895D5
:100E00000895089580E008950895CF92DF92EF92BB
:100E1000FF920F931F93CF93DF938C01790161159C
:100E20007105B9F021153105A1F0EB01C40FD51FF3
:100E30006E01CE018C199D098E159F0554F46991A0
:100E4000D801ED91FC910480F581E02DC801099550
:100E5000F0CFDF91CF911F910F91FF90EF90DF9036
:100E6000CF90089580E090E008950895089580E07F
:100E700008959A01DC01ED91FC910484F585E02D43
:100E800040E050E00994CF92DF92EF92FF920F93EF
:100E90001F93CF93DF938C01EB017A0169012097B7
:100EA00031F1DC01ED91FC910084F185E02D099593
:100EB0008F3FBFEF9B07F1F0EC0EFD1EF701808323
:100EC000C1E0D0E0CC15DD05C4F4D801ED91FC9172
:100ED0000084F185E02DC80109958F3FBFEF9B0786
:100EE00061F0F701EC0FFD1F80832196EBCF80E0CE
:100EF00090E004C08FEF9FEF01C0CE01DF91CF9152
:100F00001F910F91FF90EF90DF90CF90089508957B
:100F1000EF92FF920F931F93CF93DF93EC017B012E
:100F200000E010E00E151F05A1F0E881F9810280B4
:100F3000F381E02DCE0109951816190654F4E881C5
:100F4000F9810084F185E02DCE0109950F5F1F4FD7
:100F5000E9CFC801DF91CF911F910F91FF90EF90E2
:100F60000895CF93DF93DC01462F12968D919C91CB
:100F70001397EC01E881F9810084F185E02D149646
:100F80006D917C911597EB0121961596DC93CE938C
:100F90001497DF91CF9109940F931F93CF93DF9311
:100FA000EC0189018A819B81DC01ED91FC91640F48
:100FB000751FAC81BD810284F385E02DAB01BD01BD
:100FC00009958C819D81800F911F9D838C83DF917A
:100FD000CF911F910F910895FC01208531856217F3
:100FE000730710F4758364830895FC0124813581AF
:100FF00037832683089581E00895FC012681378197
:10100000358324830895FB0120813181DC012D93F8
:101010003C9342815381D90118970D90BC91A02D2A
:10102000A80FB91F4D935C9324813581DC01ED91AC
:10103000FC913A970190F081E02DE80FF91F318380
:10104000208308950F931F93CF93DF93EC018B01BF
:1010500081ED91E0998388838DEB91E09B878A876E
:1010600065E072E0CE01CFDF89E192E09983888369
:1010700089E392E09B878A871B830A831D821C82F7
:101080001F821E82F8018781908599878887DF916A
:10109000CF911F910F910895DC01ED91FC913A974A
:1010A00020813181820F931F5CCFDC01ED91FC9197
:1010B0003E970190F081E02D8E0F9F1F6DCFDC01D8
:1010C000ED91FC91709720813181820F931F8DCF1C
:1010D000DC01ED91FC91729720813181820F931F89
:1010E0008ACFDC01ED91FC91749720813181820FD0
:1010F000931F83CFFC01828593854681578122818E
:101100003381841B950B281739070CF4C901089506
:10111000CF93DF93DC0116966D917C9117971A9609
:101120008D919C911B9768177907A0F414968D9167
:101130009C911597EC01E881F9810484F585E02DF7
:101140009B012F5F3F4F17963C932E931697DF918D
:10115000CF9109948FEF9FEFDF91CF9108950F9377
:101160001F93CF93DF93EC01AE81BF818A859B856E
:101170008A1B9B0B8217930708F49C018C819D812D
:10118000FC0100811181460F571FF8010685178564
:10119000BD01F80109952E813F81280F391F3F833A
:1011A0002E83DF91CF911F910F910895FC0126812D
:1011B000378131872087089581E00895FC012085DB
:1011C0003185378326830895FC0122853385621794
:1011D000730710F4778366830895FC0187E992E032
:1011E000918380838BEB92E09587848788E090E001
:1011F0009383828375836483178216821186108697
:10120000DB0117968D919C9118979387828708959B
:10121000DC01ED91FC91389720813181820F931F81
:1012200069CFDC01ED91FC913E9720813181820FE5
:10123000931F6ECFDC01ED91FC9172970190F081CC
:10124000E02D8E0F9F1F8BCFDC01ED91FC913A9723
:1012500020813181820F931FA9CFDC01ED91FC9198
:101260003C9720813181820F931FA6CFDC01ED9145
:10127000FC91749720813181820F931F9FCFDC01F5
:10128000ED91FC910680F781E02D0994DC01ED9150
:10129000FC910480F581E02D0994DC0112968D917A
:1012A0009C911397DC01ED91FC910480F581E02D78
:1012B0000994CF92DF92EF92FF920F931F93CF93F7
:1012C000DF937C018B016A01EB01CE01801B910B46
:1012D0008C159D0574F4D70112968D919C911397EE
:1012E0006991DC01ED91FC910480F581E02D099577
:1012F000ECCFDF91CF911F910F91FF90EF90DF9096
:10130000CF900895DC0112968D919C911397DC018A
:10131000ED91FC910480F581E02D0994DC01129699
:101320008D919C911397DC01ED91FC910480F581E6
:10133000E02D0994DC0112968D919C911397DC01AC
:10134000ED91FC910480F581E02D0994CF93DF931A
:1013500000D0CDB7DEB77A836983DC01ED91FC91D3
:101360000680F781E02D42E050E0BE016F5F7F4FC5
:1013700009950F900F90DF91CF910895DC01ED91C9
:10138000FC910684F785E02D0994DC01ED91FC9138
:101390000684F785E02D0994CF93DF9300D000D029
:1013A000CDB7DEB749835A836B837C83DC01ED9133
:1013B000FC910680F781E02D44E050E0BE016F5FB4
:1013C0007F4F09950F900F900F900F90DF91CF9165
:1013D0000895DC01ED91FC910488F589E02D0994D4
:1013E000CF93DF9300D000D0CDB7DEB749835A83C7
:1013F0006B837C83DC01ED91FC910680F781E02D0D
:1014000044E050E0BE016F5F7F4F09950F900F9051
:101410000F900F90DF91CF910895CF93DF9300D07D
:1014200000D0CDB7DEB749835A836B837C83DC0160
:10143000ED91FC910680F781E02D44E050E0BE0183
:101440006F5F7F4F09950F900F900F900F90DF9176
:10145000CF91089521ED32E0FC0131832083738325
:1014600062830895DC0112968D919C911397DC01A3
:10147000ED91FC910084F185E02D09950895DC0142
:1014800012968D919C911397DC01ED91FC91008453
:10149000F185E02D099521E0892B09F420E0822FC8
:1014A0000895DC0112968D919C911397DC01ED91CA
:1014B000FC910084F185E02D09950895DC011296D8
:1014C0008D919C911397DC01ED91FC910084F18545
:1014D000E02D09950895CF93DF9300D0CDB7DEB707
:1014E0001A821982DC01ED91FC910688F789E02DC2
:1014F00042E050E0BE016F5F7F4F099589819A817C
:101500000F900F90DF91CF910895DC01ED91FC9148
:101510000084F185E02D0994DC01ED91FC910084BB
:10152000F185E02D0994CF93DF9300D000D0CDB7A3
:10153000DEB719821A821B821C82DC01ED91FC91BC
:101540000688F789E02D44E050E0BE016F5F7F4FD1
:10155000099569817A818B819C810F900F900F9002
:101560000F90DF91CF910895DC01ED91FC910684FD
:10157000F785E02D0994CF93DF9300D000D0CDB74D
:10158000DEB719821A821B821C82DC01ED91FC916C
:101590000688F789E02D44E050E0BE016F5F7F4F81
:1015A000099569817A818B819C810F900F900F90B2
:1015B0000F90DF91CF910895DC01ED91FC910684AD
:1015C000F785E02D09950C94BB1ACF92DF92EF922C
:1015D000FF920F931F93CF93DF937C018B016A01DE
:1015E000EB01CE01801B910B8C159D0574F4D70186
:1015F00012968D919C911397DC01ED91FC910084E2
:10160000F185E02D09958993ECCFDF91CF911F9162
:101610000F91FF90EF90DF90CF900895DC0112962C
:101620008D919C911397DC01ED91FC910088F189DB
:10163000E02D099421EF32E0FC0131832083738394
:101640006283089521E533E0FC013183208323E7A1
:1016500033E0338722870895FC01A281B38186811C
:1016600097819C012F5F3F4F37832683A80FB91FB7
:101670006C930895FC012681378131872087089576
:1016800081E00895FC012085318537832683089504
:10169000FC01248135816217730710F47783668318
:1016A000089521E533E0FC013183208323E733E013
:1016B000338722870C946516EF92FF920F931F9346
:1016C000CF93DF93EC018B017A0181ED91E0998357
:1016D00088838DEB91E09B878A876DE373E0CE0171
:1016E00092DC81E593E09983888383E793E09B878D
:1016F0008A871B830A83FD82EC821F821E821986E1
:101700001886DF91CF911F910F91FF90EF90089570
:10171000DC01ED91FC913A9720813181820F931F7A
:101720009BCFDC01ED91FC91709720813181820F7C
:10173000931FA0CFDC01ED91FC9172972081318144
:10174000820F931F9DCFDC01ED91FC917497208156
:101750003181820F931F96CFFC0181E090E044819C
:101760005581268137814217530711F480E090E0BC
:101770000895FC012681378131872087089581E013
:101780000895FC0186819781248135818217930712
:1017900060F4A281B3819C012F5F3F4F3783268382
:1017A000A80FB91F8C9190E008958FEF9FEF0895D7
:1017B000FC0120853185378326830895FC0124812F
:1017C00035816217730710F4778366830895FC01EF
:1017D00081ED93E09183808383EF93E09387828709
:1017E0007383628355834483118610861782168221
:1017F0000895DC01ED91FC91389720813181820FB1
:10180000931FAACFDC01ED91FC913A9720813181A1
:10181000820F931FAECFDC01ED91FC913C972081AC
:101820003181820F931FABCFDC01ED91FC913E978C
:1018300020813181820F931FA4CFDC01ED91FC91B7
:10184000749720813181820F931FB2CF2FE134E052
:10185000FC01318320830895CF93DF931F92CDB78E
:10186000DEB74983DC01ED91FC910480F581E02D28
:1018700021E030E0AE014F5F5F4F09950F90DF919F
:10188000CF910895CF93DF931F92CDB7DEB7DC01E0
:10189000ED91FC910684F785E02D21E030E0AE016A
:1018A0004F5F5F4F09958F3FBFEF9B0711F0898115
:1018B00090E00F90DF91CF910895AF92BF92CF92B9
:1018C000DF92EF92FF920F931F93CF93DF936C0100
:1018D0007B015A01E901DC0117968D919C911897C3
:1018E0006817790750F5861B970B332782179307E4
:1018F00008F4EC0100E010E01C161D060CF5F601E2
:10190000858196810190F081E02D9E018C179D07C5
:101910000CF49C010680F781E02DA501B701C601FA
:1019200009951816190664F4080F191FE80EF91E18
:10193000A80EB91EC81BD90BDFCF8FEF9FEF01C0D8
:10194000C801DF91CF911F910F91FF90EF90DF9031
:10195000CF90BF90AF9008952FE134E0FC01318328
:1019600020830C946516EF92FF920F931F93CF93F1
:10197000DF93EC017A01890167706065FAD189E033
:1019800094E099838883FE82ED8218870F83DF912C
:10199000CF911F910F91FF90EF900895FB01DC0113
:1019A00015962D913C911697C9010197860F971FA7
:1019B000B9010E94021A629FC001639F900D729F3D
:1019C000900D11248E1B9F0B0895AF92BF92CF9262
:1019D000DF92EF92FF920F931F93CF93DF937C01DF
:1019E0008B015A01E901DC0117968D919C911897A2
:1019F000861B970B71F133278217930708F4EC01CC
:101A0000B801C701CBDF6E01DD248C159D0508F4FC
:101A10006C01C114D10489F0D701ED91FC910480CF
:101A2000F581E02D9601A501B801C70109950C0DBE
:101A30001D1DAC0CBD1CCC19DD091C161D064CF47B
:101A4000F701858196816E018C179D072CF76C013B
:101A5000E3CFDF91CF911F910F91FF90EF90DF9037
:101A6000CF90BF90AF9008956F927F928F929F9288
:101A7000AF92BF92CF92DF92EF92FF920F931F939C
:101A8000CF93DF93CDB7DEB77C016B0189016DB6D3
:101A90007EB6DC0115968D919C911697EDB7FEB739
:101AA000E81BF90B0FB6F894FEBF0FBEEDBF2DB7C4
:101AB0003EB72F5F3F4F490117968D919C91189724
:101AC0006817790708F03FC0861B970B98013327EA
:101AD0008217930708F48C01F401D70115968D91B4
:101AE0009C9116979F01281939092817390714F472
:101AF0004193F3CFB601C70151DF1816190634F42C
:101B00005C01081719076CF458010BC01016110678
:101B1000C4F4F701858196815801801791070CF470
:101B20005C01D701ED91FC910480F581E02D9501D8
:101B3000A401B601C7010995CA0CDB1C0A191B09CF
:101B4000E5CFC80102C08FEF9FEF0FB6F8947EBEBD
:101B50000FBE6DBEDF91CF911F910F91FF90EF905F
:101B6000DF90CF90BF90AF909F908F907F906F90BD
:101B70000895CF93DF93EC012FEF3FE740E450E06F
:101B8000F2DE81E691E09983888362E0CE01DF9105
:101B9000CF91F1C0E4C1EF92FF921F93CF93DF93F7
:101BA0001F92CDB7DEB7162F7A012983DDD1682FBA
:101BB0008EE795E07CD2612F8EE795E030D22981C7
:101BC000422F50E0B7018EE795E0FCD18EE795E01B
:101BD0000F90DF91CF911F91FF90EF90E5C2CF93CF
:101BE000DF931F92CDB7DEB7498321E0AE014F5F8F
:101BF0005F4FD1DF0F90DF91CF910895DF92EF9289
:101C0000FF920F931F93CF93DF93EC01F62E142FC7
:101C1000052FE22EA9D1682F8EE795E048D26F2DCF
:101C20008EE795E0FCD160E08EE795E04AD288230C
:101C300029F090E091958195910936C0CE0194D11B
:101C40004E2D682F8EE795E0ABD2CAE08EE795E087
:101C50008ED1892B29F4C150A1F48BEF9FEF24C0C2
:101C6000CC23D9F3D12EC12FD02FFC2EFD18FE147A
:101C700028F48EE795E07BD1892B41F48F2D90E0FD
:101C800013C081E090E00E941617E0CF8EE795E048
:101C900076D18C0140E150E0BC0184E196E00ED7A2
:101CA00017FDECCF0993E1CFDF91CF911F910F91F9
:101CB000FF90EF90DF900895CF93DF931F92CDB701
:101CC000DEB721E0AE014F5F5F4F98DF97FD02C0A6
:101CD000898190E00F90DF91CF910895EF92FF926C
:101CE0001F93CF93DF9300D0CDB7DEB77C01162FC3
:101CF0002A834983E1DF4981942F909598232A8193
:101D00004223942B492F612FC7010F900F90DF9131
:101D1000CF911F91FF90EF9062CF2FE134E0FC0153
:101D20003183208308952FE134E0FC013183208347
:101D3000CCC7DC01ED91FC910190F081E02D09947C
:101D40000F931F93CF93DF931F92CDB7DEB78C0114
:101D50000296498304D18FE194E0F8019183808356
:101D60004981438314820F90DF91CF911F910F918E
:101D7000089542E0E5CFFC0163830895CF92DF929E
:101D8000EF92FF920F931F93CF93DF93EC016B01C0
:101D90008A0179010296E8D0682F8EE795E087D115
:101DA000CB81CC23A1F08C2F90E0019723E0880F0A
:101DB000991F2A95E1F7B60102C0769567958A9535
:101DC000E2F777278EE795E0B4DFC150EACFA701AD
:101DD000B8018EE795E0F6D08EE795E0E5D165E0B5
:101DE00070E080E090E0DF91CF911F910F91FF9024
:101DF000EF90DF90CF90E3C72F923F924F925F9288
:101E00006F927F928F929F92AF92BF92CF92DF920A
:101E1000EF92FF920F931F93CF93DF9300D01F9207
:101E2000CDB7DEB79B838A834B012A0189018FEFEF
:101E3000820F8983AA80BB8092E0A90EB11CC501E4
:101E400093D0682F8EE795E032D1EA81FB816380E1
:101E5000712C130143E0220C331C4A95E1F7C12C8D
:101E6000D12CE12CF12CE8E0CE1AD1086E147F04BD
:101E700091F0B1016C0D7D1DC40102C0969587954E
:101E80006A95E2F7BC0177278EE795E052DF9FEF76
:101E9000E91AF90AE8CF8EE795E086D1882329F080
:101EA00090E091958195910944C065E070E080E0F3
:101EB00090E085D7C50158D0682F70E0A8018EE763
:101EC00095E070D13FE7F32E8EE795E050D0892B57
:101ED00049F4FA9419F48BEF9FEF2BC081E090E066
:101EE000A5D7F2CFFF20B9F3E12CF12C8981C82EC0
:101EF000D12CE016F106E4F48EE795E038D0892B7A
:101F0000B9F08EE795E03BD097FD12C0EA81FB81E6
:101F10002481213021F496012E193F0901C0970137
:101F2000F201E20FF31F8083FFEFEF1AFF0AE1CF08
:101F3000C7010F900F900F90DF91CF911F910F91DC
:101F4000FF90EF90DF90CF90BF90AF909F908F90D9
:101F50007F906F905F904F903F902F900895FC017D
:101F600060838EE795E09AC0FC018081089580919E
:101F7000AE0590E02091AF05821B91090895209154
:101F8000AF058091AE05281750F4E22FF0E0E05540
:101F9000FA4F808190E02F5F2093AF0508958FEF77
:101FA0009FEF0895E091AF058091AE05E81730F4FA
:101FB000F0E0E055FA4F808190E008958FEF9FEFB9
:101FC00008950895CF92DF92EF92FF920F931F939F
:101FD000CF93DF937C01CB018A0120918A052223D4
:101FE00089F0EB016B01C40ED51ECC15DD0569F03F
:101FF0006991D701ED91FC910190F081E02DC7012D
:102000000995F3CF642F0E94AE18C801DF91CF91DC
:102010001F910F91FF90EF90DF90CF900895CF9395
:10202000DF931F92CDB7DEB7698320918A05222303
:10203000D1F020918B05203240F021E030E0FC010E
:102040003383228380E090E015C080918C05E82FD7
:10205000F0E0E357FA4F998190838F5F80938C056E
:1020600080938B0505C061E0CE0101960E94AE18F9
:1020700081E090E00F90DF91CF910895FC011382F1
:10208000128248EE53E060E070E04483558366833B
:1020900077838BE294E09183808308951092AF055B
:1020A0001092AE0510928C0510928B059CC781E0B2
:1020B00080938A056093AD0510928C0510928B0574
:1020C00008950F93062F21E040918B056DE875E090
:1020D0008091AD05ECD710928C0510928B05109273
:1020E0008A050F9108958F929F92AF92BF92CF92DF
:1020F000DF92EF92FF920F931F93CF93DF93EC0148
:10210000F62ED42E48015901EE2009F1D0DF1E2D04
:10211000143008F013E01150B8F0E881F98128E09C
:10212000129FB0011124A501940104C05695479552
:10213000379527956A95D2F7CA01B9010190F081C8
:10214000E02DCE010995E7CF60E0CE01BADF4D2D3D
:10215000413208F040E22C2D60EB75E08F2D5FD707
:102160001092AF058093AE05DF91CF911F910F9133
:10217000FF90EF90DF90CF90BF90AF909F908F90A7
:102180000895CF92EF920F931F93C22EE12C00E09F
:1021900010E09801A8DF1F910F91EF90CF90089564
:1021A00021E0EFCF21E0EDCF61E08BCF8EE795E02E
:1021B00065CF209112063091130628173907B9F41C
:1021C0009091D0058091D105981789F0E091D005C4
:1021D000F0E0EE52FA4F80812091D00530E02F5F81
:1021E0003F4F2F7333272093D00590E008958FEF52
:1021F0009FEF08951F93CF93DF93DC015C968D9141
:102200009C915D97009749F481E090E013969C9330
:102210008E93129780E090E03BC05196ED91FC9137
:10222000529750962C915097322F30951FB75E964B
:102230004C915E9741FB772770F941FD6095F894CA
:102240004081772311F0422B01C043234083EC01EE
:102250002197F1F748E0508160FF02C0522B01C086
:1022600053235083EC012197F1F76695415099F77C
:102270008081772311F0832301C0822B80831FBFCD
:102280005C968D919C915D970197F1F781E090E0CC
:10229000DF91CF911F9108950895209112063091FA
:1022A00013062817390771F49091D0058091D10554
:1022B000981741F0E091D005F0E0EE52FA4F80819E
:1022C00090E008958FEF9FEF0895209112063091CE
:1022D00013062817390769F48091D1052091D0059C
:1022E00090E0805C9F4F821B910960E470E00C9449
:1022F000161A80E090E00895E0911206F09113061E
:10230000E817F90769F4A389B4899C9185898095B8
:1023100089238C93109213061092120681E008957F
:1023200080E008951F920F920FB60F9211242F9301
:102330003F934F935F936F937F938F939F93AF934D
:10234000BF93EF93FF93E0911206F091130630973D
:1023500009F451C0868DA685B785958581FF04C097
:102360008C91892329F447C08C91892309F043C0BB
:10237000A389B4899C918589809589238C938689CA
:1023800097890197F1F7208D318DA685B7857585E1
:1023900058E040E0C9010197F1F7842F90E095954E
:1023A0008795482F6C91672309F04068515091F749
:1023B000868D81FD40958091D10590E001968F73C7
:1023C00099272091D005281749F0A091D105B0E0B8
:1023D000AE52BA4F4C938093D10503C0868D816075
:1023E000868F828D938D0197F1F7A389B4898C91A3
:1023F0009589892B8C93FF91EF91BF91AF919F911C
:102400008F917F916F915F914F913F912F910F909D
:102410000FBE0F901F9018952BE334E0FC01318321
:1024200020836ACF1F93CF93DF93EC01162F6E8D1D
:102430006695617081E06827812FA0D561E0812FCA
:1024400064D5812F90E0FC01E657FF4FE491E88BC3
:10245000FC01E256FF4FE491F0E0EE0FFF1FE45461
:10246000FF4F859194919A8B898BDF91CF911F912A
:1024700008951F93CF93DF93EC01162F60E0812F17
:1024800044D58E8D81FD03C061E0812F77D51C87F7
:10249000812F90E0FC01E657FF4FE491ED87FC01AE
:1024A000E256FF4FE491F0E0EE0FFF1FEE54FF4FB6
:1024B000859194919F878E87DF91CF911F91089589
:1024C000FF920F931F93CF93DF93EC01F62E522FC1
:1024D0001B821A8208EE13E020E030E00C831D839B
:1024E0002E833F838BE394E0998388831F8A1E8A1F
:1024F000198E188E1B8E1A8E1D8E1C8E8E8D8E7FC1
:1025000050FB81F98E8F642FCE018CDF6F2DCE01B1
:10251000DF91CF911F910F91FF90ABCFFC01818D87
:10252000228D90E0805C9F4F821B91098F739927C9
:102530000895FC01918D828D981731F0828DE80FFE
:10254000F11D858D90E008958FEF9FEF0895FC01B8
:10255000918D828D981761F0828DDF01A80FB11DDA
:102560005D968C91928D9F5F9F73928F90E00895FE
:102570008FEF9FEF089585E294E1892B41F080E091
:1025800090E0892B21F061D181110C940000089515
:10259000FC01848DDF01A80FB11DA35ABF4F2C9100
:1025A000848D90E001968F739927848FA689B789CF
:1025B0002C93A089B1898C9180648C93938D848DA8
:1025C000981306C00288F389E02D80818F7D808377
:1025D0000895CF93DF93EC01888D8823C1F0EA89B9
:1025E000FB89808185FD05C0A889B9898C9186FD0C
:1025F0000EC00FB607FCF5CF808185FFF2CFA8890A
:10260000B9898C9185FFEDCFCE01C2DFE8CFDF9194
:10261000CF910895CF92DF92FF920F931F93CF93A4
:10262000DF931F92CDB7DEB76C0181E0D6015896DB
:102630008C9358975B969C915B975C968C915C977A
:10264000981307C05096ED91FC915197808185FDBC
:102650002DC0F601038D10E00F5F1F4F0F73112780
:10266000F02EF601848DF81210C00FB607FCF9CFDA
:10267000D6015096ED91FC915197808185FFF1CF65
:10268000C601698385DF6981ECCF838DE80FF11D79
:10269000E35AFF4F6083D6015B960C935B9752968B
:1026A000ED91FC915397808180620CC0D6015696C3
:1026B000ED91FC91579760835096ED91FC91519765
:1026C00080818064808381E090E00F90DF91CF91E2
:1026D0001F910F91FF90DF90CF900895BF92CF92FE
:1026E000DF92EF92FF92CF93DF93EC016A017B01BF
:1026F000B22EE889F98982E08083411581EE58077E
:102700006105710599F060E079E08DE390E0A70143
:1027100096019FD621503109410951095695479597
:1027200037952795211580E1380790F0E889F989D8
:10273000108260E874E88EE190E0A701960189D6E6
:1027400021503109410951095695479537952795EB
:10275000EC85FD853083EE85FF852083188EEC891E
:10276000FD89B082EA89FB89808180618083EA8962
:10277000FB89808188608083EA89FB898081806809
:102780008083EA89FB8980818F7D8083DF91CF916F
:10279000FF90EF90DF90CF90BF9008951F920F921F
:1027A0000FB60F9211242F938F939F93EF93FF9364
:1027B000E0912406F09125068081E0912A06F091AF
:1027C0002B0682FD12C0908180912D068F5F8F7342
:1027D00020912E06821751F0E0912D06F0E0EC5E7C
:1027E000F94F958F80932D0601C08081FF91EF9165
:1027F0009F918F912F910F900FBE0F901F90189562
:102800001F920F920FB60F9211242F933F934F9365
:102810005F936F937F938F939F93AF93BF93EF9348
:10282000FF9384E196E0B4DEFF91EF91BF91AF9109
:102830009F918F917F916F915F914F913F912F91D8
:102840000F900FBE0F901F90189584E196E066DE02
:1028500021E0892B09F420E0822F089510921706B9
:102860001092160688EE93E0A0E0B0E08093180680
:1028700090931906A0931A06B0931B068BE494E07C
:10288000909315068093140685EC90E090932106B2
:102890008093200684EC90E0909323068093220698
:1028A00080EC90E0909325068093240681EC90E0E4
:1028B000909327068093260682EC90E09093290659
:1028C0008093280686EC90E090932B0680932A064E
:1028D00010922D0610922E0610922F06109230069E
:1028E0000895CF92DF92EF92FF920F931F93CF93B1
:1028F000DF937C016A01EB0100E010E00C151D057F
:1029000071F06991D701ED91FC910190F081E02D7A
:10291000C7010995892B19F00F5F1F4FEFCFC80131
:10292000DF91CF911F910F91FF90EF90DF90CF90AB
:1029300008956115710581F0DB010D900020E9F724
:10294000AD0141505109461B570BDC01ED91FC9143
:102950000280F381E02D099480E090E00895E9CFB2
:10296000DC01ED91FC910190F081E02D099467E587
:1029700074E0DFCF0F931F93CF93DF93EC01D9DF88
:102980008C01CE01F4DF800F911FDF91CF911F9159
:102990000F9108958F929F92AF92BF92DF92EF9224
:1029A000FF920F931F93CF93DF93CDB7DEB7A1971D
:1029B0000FB6F894DEBF0FBECDBF7C01F42FD52E2D
:1029C000CB0119A2223008F42AE08E010F5D1F4FBF
:1029D000822E912CA12CB12C6F2F7D2DA50194015D
:1029E00038D5F22FD32ECA01015011096A3010F4E4
:1029F000E0E301C0E7E3E60FD801EC93232B242B9F
:102A0000252B51F7B801C70194DFA1960FB6F894B2
:102A1000DEBF0FBECDBFDF91CF911F910F91FF9011
:102A2000EF90DF90BF90AF909F908F900895CF92DE
:102A3000DF92EF92FF920F931F93CF93DF93EC01FE
:102A40006A017B012115310579F4E881F981019052
:102A5000F081E02D642FDF91CF911F910F91FF90B6
:102A6000EF90DF90CF9009942A303105D9F477FFA9
:102A700018C06DE275DF8C0144275527BA014C1947
:102A80005D096E097F092AE0CE0184DF800F911F66
:102A9000DF91CF911F910F91FF90EF90DF90CF903A
:102AA00008952AE0B701A601CE01DF91CF911F91D1
:102AB0000F91FF90EF90DF90CF906CCF0F931F930B
:102AC000CF93DF93EC019A01AB01662757FD609528
:102AD000762FADDF8C01CE014ADF800F911FDF9191
:102AE000CF911F910F9108952115310541F4DC011B
:102AF000ED91FC910190F081E02D642F09944ACF73
:102B00000F931F93CF93DF93EC019A01462F50E070
:102B100060E070E0E9DF8C01CE0129DF800F911FBA
:102B2000DF91CF911F910F9108950F931F93CF9332
:102B3000DF93EC0115D1688779878A879B87E881C5
:102B4000F9810680F781E02DCE01099597FF14C029
:102B500007D1088519852A853B85601B710B820B7F
:102B6000930B0C811D812E813F81601771078207B5
:102B7000930728F38FEF9FEFDF91CF911F910F9174
:102B80000895CF92DF92EF92FF920F931F93CF930E
:102B9000DF937C016A01EB0100E010E00C151D05DC
:102BA00041F0C701C2DF97FD04C089930F5F1F4F3B
:102BB000F5CFC801DF91CF911F910F91FF90EF905A
:102BC000DF90CF90089508958230E8F4E82FF0E088
:102BD000EE0FFF1FEA5FFE4F71836083813041F08B
:102BE000809169008C7F842B80936900E89A089516
:102BF00080916900440F551F440F551F837F842B1C
:102C000080936900E99A0895823078F4813011F058
:102C1000E89801C0E998E82FF0E0EE0FFF1FEA5FA7
:102C2000FE4F83EE95E19183808308951F920F926A
:102C30000FB60F9211242F933F934F935F936F938F
:102C40007F938F939F93AF93BF93EF93FF93E09105
:102C50000601F09107010995FF91EF91BF91AF91A6
:102C60009F918F917F916F915F914F913F912F91A4
:102C70000F900FBE0F901F9018951F920F920FB6D6
:102C80000F9211242F933F934F935F936F937F93F2
:102C90008F939F93AF93BF93EF93FF93E0910801BE
:102CA000F09109010995FF91EF91BF91AF919F912B
:102CB0008F917F916F915F914F913F912F910F90E5
:102CC0000FBE0F901F90189509D679C51F920F92CD
:102CD0000FB60F9211242F933F938F939F93AF932F
:102CE000BF938091B2069091B306A091B406B091C3
:102CF000B5063091B10623E0230F2D3720F401965D
:102D0000A11DB11D05C026E8230F0296A11DB11D0E
:102D10002093B1068093B2069093B306A093B406B5
:102D2000B093B5068091B6069091B706A091B8060B
:102D3000B091B9060196A11DB11D8093B60690937E
:102D4000B706A093B806B093B906BF91AF919F9113
:102D50008F913F912F910F900FBE0F901F9018955C
:102D60002FB7F8946091B2067091B3068091B406C3
:102D70009091B5062FBF08953FB7F8948091B6069D
:102D80009091B706A091B806B091B90626B5A89B58
:102D900005C02F3F19F00196A11DB11D3FBF662749
:102DA000782F892F9A2F620F711D811D911D42E08E
:102DB000660F771F881F991F4A95D1F708958F9244
:102DC0009F92AF92BF92CF92DF92EF92FF926B01F0
:102DD0007C01D2DF4B015C01C114D104E104F10498
:102DE000E1F00FD3C9DF681979098A099B09683EA8
:102DF00073408105910580F321E0C21AD108E108F2
:102E0000F10888EE880E83E0981EA11CB11CC11445
:102E1000D104E104F10431F7DFCFFF90EF90DF90B0
:102E2000CF90BF90AF909F908F9008958230910582
:102E300038F0880F991F880F991F05970197F1F7B0
:102E40000895789484B5826084BD84B5816084BD22
:102E500085B5826085BD85B5816085BDEEE6F0E013
:102E6000808181608083E1E8F0E01082808182606F
:102E70008083808181608083E0E8F0E080818160F0
:102E80008083E1EBF0E0808184608083E0EBF0E020
:102E9000808181608083EAE7F0E0808184608083C4
:102EA000808182608083808181608083808180686E
:102EB00080831092C1000895833081F028F481301E
:102EC00099F08230A1F008958730A9F08830B9F0E8
:102ED0008430D1F4809180008F7D03C08091800088
:102EE0008F7780938000089584B58F7702C084B572
:102EF0008F7D84BD08958091B0008F7703C080914D
:102F0000B0008F7D8093B0000895CF93DF9390E061
:102F1000FC01E657FF4F2491FC01E256FF4F8491DC
:102F2000882349F190E0880F991FFC01EA53FF4F75
:102F3000A591B49184549F4FFC01C591D4919FB742
:102F4000611108C0F8948C91209582238C9388811C
:102F500082230AC0623051F4F8948C91322F30955C
:102F600083238C938881822B888304C0F8948C916E
:102F7000822B8C939FBFDF91CF9108950F931F9366
:102F8000CF93DF931F92CDB7DEB7282F30E0F90142
:102F9000EA58FF4F8491F901E657FF4F1491F90168
:102FA000E256FF4F04910023C1F0882319F0698392
:102FB00083DF6981E02FF0E0EE0FFF1FE454FF4F45
:102FC000A591B4919FB7F8948C91611103C01095AD
:102FD000812301C0812B8C939FBF0F90DF91CF91F4
:102FE0001F910F9108951092270781E08093250784
:102FF0001092240761E082E1C1DF61E083E1BEDF7E
:10300000E9EBF0E080818E7F808380818D7F8083FB
:1030100088E48093B80085E48093BC000895413231
:1030200008F043C0909127079111FCCF91E0909355
:103030002707209325072FEF2093BA061092FF064B
:10304000240F2093FE069093260790912607880F61
:10305000892B8093260780912407813061F4109298
:103060002407809126078093BB008091BC0083FDDC
:10307000F8CF85EC01C085EE8093BC0080912707D6
:103080008130E1F38091FF06841710F44091FF0630
:1030900020E037E0FB01D9018A2F821B841718F446
:1030A0008D918193F9CF842F089580E008950F9337
:1030B000413208F04AC0909127079111FCCF92E06D
:1030C00090932707009325079FEF9093BA061092DD
:1030D000FF064093FE06FB0160E077E0DB019A2FDC
:1030E000961B941718F491919D93F9CF109226078F
:1030F00090912607880F892B8093260780912407BB
:10310000813061F410922407809126078093BB00E0
:103110008091BC0083FDF8CF85EC01C085EE8093E3
:10312000BC00222321F0809127078230E1F38091B7
:10313000BA068F3F61F08091BA06803251F08091DB
:10314000BA06803341F483E007C081E005C080E027
:1031500003C082E001C084E00F910895613298F4C9
:1031600020912707243089F46093DC06FC018EED62
:1031700096E0DC012A2F281B261718F421912D93A5
:10318000F9CF80E0089581E0089582E0089585ED0B
:103190008093BC008091BC0084FDFCCF1092270777
:1031A000089585EC8093BC001092270708951F9224
:1031B0000F920FB60F9211242F933F934F935F936B
:1031C0006F937F938F939F93AF93BF93EF93FF93EF
:1031D0008091B900887F803609F49DC070F58832EF
:1031E00009F45CC090F4803109F455C038F48823A8
:1031F00009F4F3C0883009F44EC0F2C0883109F4F4
:103200004DC0803209F45EC0EBC0803409F469C05F
:1032100050F4803309F456C0883309F0E1C080933C
:10322000BA06BFDFDDC0803509F44FC0883509F428
:103230005DC0883409F0D4C0D2C0883909F4C3C055
:10324000A8F4883709F467C038F4883609F463C0F5
:10325000803709F460C0C4C0883809F4B4C080392C
:1032600009F45FC0803809F0BBC05BC0803B09F443
:1032700082C038F4803A09F466C0883A09F47BC009
:10328000AFC0803C09F4A3C0883C09F4A0C0883BCF
:1032900009F486C0A5C08091260710C09091FF0652
:1032A0008091FE06981770F5E091FF0681E08E0F81
:1032B0008093FF06F0E0E050F94F80818093BB00DF
:1032C00085EC82C08093BA068AC0E091FF0681E057
:1032D0008E0F8093FF068091BB00F0E0E050F94F25
:1032E00080839091FF068091FE066AC0E091FF0600
:1032F00081E08E0F8093FF068091BB00F0E0E050EC
:10330000F94F808380912507811169C081E0809306
:10331000240784EA5DC083E0809327071092BB06F0
:10332000CFCF8091BB06803208F04DC0E091BB0644
:1033300081E08E0F8093BB068091BB00F0E0E454E7
:10334000F94F8083BDCF2DDF8091BB06803230F4F2
:10335000E091BB06F0E0E454F94F10826091BB06A7
:1033600070E0E0912007F09121078CEB96E0099541
:103370001092BB0635C084E0809327071092DD06CB
:103380001092DC06E0912207F091230709958091C5
:10339000DC06811105C081E08093DC061092DE0618
:1033A000E091DD0681E08E0F8093DD06F0E0E252D1
:1033B000F94F80818093BB009091DD068091DC06FF
:1033C000981708F47DCF85E88093BC0009C085EC90
:1033D0008093BC001092270703C01092BA06D7DE74
:1033E000FF91EF91BF91AF919F918F917F916F91DD
:1033F0005F914F913F912F910F900FBE0F901F90B3
:1034000018950895AA1BBB1B51E107C0AA1FBB1F3B
:10341000A617B70710F0A61BB70B881F991F5A9560
:10342000A9F780959095BC01CD01089597FB072ED3
:1034300016F4009406D077FD08D0E4DF07FC05D031
:103440003EF4909581959F4F0895709561957F4FBB
:103450000895A1E21A2EAA1BBB1BFD010DC0AA1FD5
:10346000BB1FEE1FFF1FA217B307E407F50720F0ED
:10347000A21BB30BE40BF50B661F771F881F991F68
:103480001A9469F760957095809590959B01AC01B1
:10349000BD01CF010895EE0FFF1F0590F491E02DBF
:1034A00009940CD0BAC0B2D040F0A9D030F021F4C9
:1034B0005F3F19F09BC05111E4C09EC0BFD098F38C
:1034C0009923C9F35523B1F3951B550BBB27AA27A5
:1034D00062177307840738F09F5F5F4F220F331F17
:1034E000441FAA1FA9F333D00E2E3AF0E0E830D0E3
:1034F00091505040E695001CCAF729D0FE2F27D0E6
:10350000660F771F881FBB1F261737074807AB07B3
:10351000B0E809F0BB0B802DBF01FF2793585F4F28
:103520002AF09E3F510568F061C0ABC05F3FECF3ED
:10353000983EDCF3869577956795B795F7959F5FED
:10354000C9F7880F911D9695879597F90895E1E041
:10355000660F771F881FBB1F621773078407BA07A0
:1035600020F0621B730B840BBA0BEE1F88F7E095FB
:103570000895E89409C097FB3EF490958095709566
:1035800061957F4F8F4F9F4F9923A9F0F92F96E9AF
:10359000BB279395F695879577956795B795F11124
:1035A000F8CFFAF4BB0F11F460FF1BC06F5F7F4FC1
:1035B0008F4F9F4F16C0882311F096E911C07723D3
:1035C00021F09EE8872F762F05C0662371F096E8DC
:1035D000862F70E060E02AF09A95660F771F881FAB
:1035E000DAF7880F9695879597F9089597F99F6769
:1035F00080E870E060E008959FEF80EC089500247B
:103600000A941616170618060906089500240A9447
:1036100012161306140605060895092E0394000CCD
:1036200011F4882352F0BB0F40F4BF2B11F460FF5C
:1036300004C06F5F7F4F8F4F9F4F089557FD905885
:10364000440F551F59F05F3F71F04795880F97FB66
:10365000991F61F09F3F79F0879508951216130620
:103660001406551FF2CF4695F1DF08C0161617064F
:103670001806991FF1CF8695710561050894089584
:10368000E894BB2766277727CB0197F90895CF9356
:10369000DF938230910510F482E090E0E0912A07F8
:1036A000F0912B0720E030E0A0E0B0E0309739F156
:1036B0004081518148175907B8F04817590771F4EC
:1036C00082819381109729F013969C938E93129781
:1036D0002CC090932B0780932A0727C02115310512
:1036E00031F04217530718F0A901DB0101C0EF01C7
:1036F0009A01BD01DF010280F381E02DD7CF2115B2
:103700003105F9F0281B390B2430310580F48A810A
:103710009B816115710521F0FB019383828304C0B5
:1037200090932B0780932A07FE01329644C0FE0136
:10373000E20FF31F8193919322503109398328833B
:103740003AC02091280730912907232B41F420917A
:10375000020130910301309329072093280720911B
:103760000001309101012115310541F42DB73EB71B
:103770004091040150910501241B350BE09128076D
:10378000F0912907E217F307A0F42E1B3F0B28172F
:10379000390778F0AC014E5F5F4F2417350748F0CA
:1037A0004E0F5F1F509329074093280781939193F1
:1037B00002C0E0E0F0E0CF01DF91CF910895CF9318
:1037C000DF93009709F487C0FC01329713821282BD
:1037D000C0912A07D0912B07209781F42081318155
:1037E000280F391F80912807909129078217930786
:1037F00079F5F0932907E09328076DC0DE0120E0FA
:1038000030E0AE17BF0750F412964D915C911397BC
:103810009D014115510509F1DA01F3CFB383A2836C
:1038200040815181840F951F8A179B0771F48D91F8
:103830009C911197840F951F029691838083129615
:103840008D919C911397938382832115310529F4DF
:10385000F0932B07E0932A073EC0D9011396FC93FF
:10386000EE9312974D915D91A40FB51FEA17FB07D8
:1038700079F480819181840F951F0296D901119668
:103880009C938E938281938113969C938E9312972F
:10389000E0E0F0E08A819B81009719F0FE01EC01E5
:1038A000F9CFCE01029628813981820F931F209192
:1038B0002807309129072817390769F4309729F428
:1038C00010922B0710922A0702C013821282D09303
:1038D0002907C0932807DF91CF91089581E090E0F8
:1038E000F89409C0FB01DC0102C001900D92415027
:1038F0005040D8F7089510E0C6EDD0E003C0FE01B7
:0E390000CCDD2296C83DD107D1F7F894FFCF59
:10390E0000002C072000E315E315000080420000A4
:10391E00004200008041000080460000004600008A
:10392E0080454E4F5420636F6E6E65637465640000
:10393E00696E697469616C697A6564006D61736B37
:10394E003A200073657474696E673A200063686587
:10395E00636B436F6E6E656374696F6E000000007B
:10396E000009020F02BE0EFC0E2C0CE50C420C5D83
:10397E000C340D000000006416641664160000007E
:10398E000078047A047C04000000007E04840400A5
:10399E000000000007FF06AA06F506B6060107029C
:1039AE00070407000000003507CD0636073707D994
:1039BE00063907E50687078807000000000007FFA5
:1039CE00066416F506050701070207040700000046
:1039DE000064160A000000000000000000641600DB
:1039EE00000000000000000000000000000000F6D3
:1039FE00FF00000007FF066416F506050701070223
:103A0E000704071902DD01DD01F301190239020A6B
:103A1E00000000000000000000EC07B107CC07F525
:103A2E0007FB07FD07F6FFF6FFF6FFF6FF0000F6B1
:103A3E00FF00000000F6FF00000007FF064C08F52F
:103A4E000655085F08680871080C000000000000A9
:103A5E0000000064160000000000000000000000DE
:103A6E0000000000000000F4FF00003507320736AA
:103A7E0007370764163907430787078807970297A2
:103A8E00029702BB02530253026B0200000C0000AD
:103A9E0000000000000000E4087A088808AF08D68D
:103AAE0008DC08DE080000F4FFF4FF0000F4FFF469
:103ABE00FFF4FFF4FF0000F4FF00003507080924AF
:103ACE00092D09110939071A09360988070000005E
:103ADE00003F0946094D09590982098E099A09A61E
:103AEE0009BE09C509CC09E909F0090D0A00000053
:103AFE0000320A3F0A510A5E0A6B0A850A8C0A9343
:103B0E000AB40ABB0ADC0AE50A0E0B0A0000000022
:103B1E00000000000064160000000000000000001D
:103B2E0000000000000000F6FF00000007FF066422
:103B3E0016F50605070107020704075103150315BD
:103B4E00032B03510373030A000000000000000062
:103B5E0000480B220B510B2C0B3A0B400B420BF671
:103B6E00FFF6FFF6FF00000000F6FF00000000F673
:103B7E00FF00000007FF06880BF5060507910B9A5C
:103B8E000BA30B0A000000000000000000641600EA
:103B9E000000000000000000000000000000000017
:103BAE0000F6FF000035073207360737076416396F
:103BBE0007430787078807D103D103D103F3038D8A
:103BCE00038D03A50300000A0000000000000000A2
:103BDE0000DE0BAC0BB90BBF0BC10BD80B0000F604
:103BEE00FF00000000F6FFF6FFF6FFF6FF0000F6FE
:103BFE00FF00003507F90B020C0B0C140C390743B0
:103C0E00071D0C880700000000260CAC0CBE0EFC35
:103C1E000E2C0CE50C420C5D0C340D000000008DDA
:103C2E000E930EBE0EFC0E000000000F10E20FB73A
:103C3E000FBF0FD20FE10F00000000FA10711465D4
:103C4E0011D9104D114C11000000000A1371148E81
:103C5E0012A7129912E9120D0A006E616E00696EBA
:083C6E0066006F7666002E006F
:00000001FF
